:020000040800F2
:10000000C8710020590200080F2A000823250008A3
:100010000D2A0008850A0008AD380008000000001D
:100020000000000000000000000000009D0100082A
:10003000330C000800000000F1010008812F0008C7
:1000400073020008730200087302000873020008BC
:1000500073020008730200087302000873020008AC
:10006000730200087302000873020008730200089C
:10007000730200087302000873020008730200088C
:10008000730200087302000873020008730200087C
:10009000ED0A0008730200087302000873020008EA
:1000A000730200088530000873020008730200081C
:1000B0009130000873020008730200087302000800
:1000C000730200087302000873020008730200083C
:1000D000730200087302000873020008730200082C
:1000E000730200087302000873020008730200081C
:1000F000730200087302000873020008730200080C
:1001000073020008730200087302000873020008FB
:1001100073020008730200087302000873020008EB
:1001200073020008730200087302000873020008DB
:1001300073020008000000000000000073020008C5
:1001400073020008730200087302000873020008BB
:1001500073020008730200087302000873020008AB
:10016000730200087302000873020008730200089B
:100170007302000873020008000000000000000085
:100180007302000873020008DFF80CD000F0ECFBEB
:100190000048004741620008C87100202B4B1968D5
:1001A0000868B0E8F04F80F30988BFF36F8F4FF015
:1001B000000080F3118870470000000006480068C6
:1001C000006880F3088862B661B6BFF34F8FBFF353
:1001D0006F8F00DF00BF00BF08ED00E0DFF80C000C
:1001E000016841F470010160704700BF88ED00E0D4
:1001F000EFF30980BFF36F8F144B1A681EF0100FD6
:1002000008BF20ED108A20E9F04F106008B44FF0CD
:10021000500080F31188BFF34F8FBFF36F8F0AF048
:1002200023F94FF0000080F3118808BC19680868B2
:10023000B0E8F04F1EF0100F08BFB0EC108A80F34A
:100240000988BFF36F8F704700BF00BF64000020B4
:10025000EFF30580704700000648804706480047D6
:10026000FEE7FEE7FEE7FEE7FEE7FEE7FEE7FEE766
:10027000FEE7FEE731300008890100082DE9F05F54
:100280000546002092469B46884606468146402405
:100290001BE0284641464746224600F07FFA534677
:1002A0005A46C01A914110D311461846224600F012
:1002B00066FA2D1A67EB01084F46224601200021FD
:1002C00000F05DFA17EB00094E41201EA4F1010475
:1002D000DFDC484631462A464346BDE8F09F2DE91B
:1002E000F0410024061B254671F1000605DA0124C1
:1002F0000027D0EB070067EB0101161E73F1000623
:1003000005DA0027D2EB0702012567EB0303FFF7AD
:10031000B5FF86460E4617469C46AC4204D00025E3
:10032000D0EB050E65EB010624B10020D2EB0007EF
:1003300060EB030C704631463A466346BDE8F081F7
:1003400010B540EA01040346A40703D009E010C930
:10035000121F10C3042AFAD203E011F8014B03F86C
:10036000014B521EF9D210BDD2B201E000F8012BB0
:10037000491EFBD270470022F6E710B513460A4625
:1003800004461946FFF7F0FF204610BD10B50022C5
:1003900000E0521C835C8C5CA34201D1002BF8D19D
:1003A000D8B2E1B2401A10BD30B504460020034671
:1003B00000E05B1C934203D2E05CCD5C401BF8D0B4
:1003C00030BD2DE9FE4F804681EA0300C00F0C4688
:1003D000009021F0004123F00045B8EB0200A94154
:1003E00005D24046214690461C460B46024623F065
:1003F0000040104347D0270DC7F30A00C3F30A514A
:100400000290401A019040286BDAC3F3130040F4C5
:10041000801B0098924620B10023D2EB030A63EBC5
:100420000B0B01985946C0F14002504600F0A7F965
:1004300006460D4650465946019A00F0BFF910EBAA
:1004400008006141002487EA115284EAE7731A43E5
:1004500040D0009A62B3019A012A4FEA075215DC94
:10046000001B61EB02014FF0004202EA0752CDE9A6
:100470000042001C41F5801132462B4600F0F6F98F
:1004800003B0BDE8F08F40462146F9E7001B61EB61
:100490000201001C41F5801300185B412018A2F5F1
:1004A000001747EB030140EAD570B6196D4111E022
:1004B0006D084FEA360645EAC0754FEA0752001B41
:1004C00061EB0201001C41F5801149084FEA300040
:1004D0000019514132462B4603B0BDE8F04F00F001
:1004E000B6B90098012240000023D0EB020263EB72
:1004F000E073009821464FEAE074B8EB000061EB2E
:100500000401E9E783F000435BE781F0004158E72D
:100510002DE9FE4F81EA030404F0004421F000417C
:1005200000944FF0000B23F0004350EA01045ED02A
:1005300052EA03045BD0C3F30A54C1F30A552C44B6
:10054000A4F2F3340194A0FB0254C1F3130141F46B
:100550008011C3F3130343F4801301FB024400FB37
:10056000034E840A970A44EA815447EA8357A4FB5E
:10057000076802958D0A05FB07854FEA932C04FB5B
:100580000C542705029D4FEA065847EA1637B5EB8B
:1005900008056EEB070C870E920E47EA811742EAB8
:1005A0008312A7FB0201B6EB0B0164EB00042B0DD9
:1005B00043EA0C335E1844EB1C50DA465146E7FB25
:1005C0000201C5F313044FEA0B3343EA14534FEA15
:1005D0000432019C43EA0603A4F10C040294009C3B
:1005E000CDE900B400F042F903B0BDE8F08F00207F
:1005F0000146F9E72DE9F04D81EA030404F0004BD0
:1006000021F0004514464FF0000A23F0004150EA63
:10061000050220D054EA01021DD0C5F30A57024654
:10062000C5F31303C1F31300C1F30A5640F4801558
:1006300043F48013A7EB0608101BD64608F2FD38DA
:1006400073EB050002D308F1010801E092185B4149
:10065000B8F1000F03DA00200146BDE8F08D00205C
:100660004FF48011064684460EE0171B73EB050716
:1006700005D3121B63EB050306434CEA010C490842
:100680004FEA300092185B4150EA0107EDD152EA7F
:10069000030012D082EA040083EA0501084305D072
:1006A000101BAB4106D20122002306E000224FF0CE
:1006B000004302E06FF0010253101AEB06004CEB0E
:1006C000085110EB0A0041EB0B01BDE8F04D00F0C2
:1006D000BEB80EB5C10F80EAE0700844CA07002119
:1006E00040F233438DE80E000A460B4600F0BEF898
:1006F00003B000BD00F0004230F000400AD0C10D50
:1007000001F56071C0F3160042EA0151C2084007CA
:100710001143704700200146704701F0004330B498
:1007200021F0004150EA010206D00A0DA2F56072E4
:10073000C1F31301002A02DC30BC00207047440FD3
:1007400044EAC104C100E01830BC00EBC25000F024
:1007500047B830B50B46014600202022012409E0AD
:1007600021FA02F59D4205D303FA02F5491B04FA6A
:1007700002F52844151EA2F10102F1DC30BD202A49
:1007800004DB203A00FA02F1002070479140C2F1E8
:10079000200320FA03F3194390407047202A04DB1A
:1007A000203A21FA02F00021704721FA02F3D040EA
:1007B000C2F120029140084319467047202A06DB07
:1007C000CB17203A41FA02F043EAE07306E041FA1F
:1007D00002F3D040C2F1200291400843194670470D
:1007E0000029A8BF7047401C490008BF20F0010045
:1007F000704710B4B0FA80FC00FA0CF050EA010423
:1008000004BF10BC704749B1CCF1200421FA04F4B4
:1008100011FA0CF118BF012121430843A3EB0C018D
:10082000CB1D4FEA00614FEA102042BF002010BCF0
:10083000704700EBC35010440029A4BF10BC7047A0
:10084000401C490008BF20F0010010BC704710B5E3
:10085000141E73F1000408DA401C41F100019218E3
:100860005B411A4301D120F0010010BD2DE9F04D8C
:1008700092469B4611B1B1FA81F202E0B0FA80F2E1
:1008800020329046FFF77BFF04460F4640EA0A00FD
:1008900041EA0B0153465A46084313D0114653EA26
:1008A000010019D0C8F140025046FFF777FF054616
:1008B0000E46504659464246FFF761FF084305D0B1
:1008C000012004E020463946BDE8F08D00200543B4
:1008D00046EAE0762C4337430A986305E40AA0EB26
:1008E00008000022FD0A44EA47540A3002D50020DD
:1008F0000146E9E7010510196941DDE908450019DC
:100900006941BDE8F04DA2E7C1F30A52C1F31301FA
:1009100040F2FF3341F480119A4202DA002001468E
:10092000704740F233439A42A2F2334202DC524211
:10093000FFF734BFFFF723BF30B5041E71F1000489
:1009400004DB4FF00044404264EB0101141E73F1DC
:10095000000405DB1C464FF00043524263EB0403E6
:10096000994208BF904230BD064C074D06E0E06852
:1009700040F0010394E8070098471034AC42F6D3E6
:10098000FFF706FCFCCD00081CCE00082DE9F04D59
:1009900000231A461B1A8A4103DB00200146BDE8EA
:1009A000F08DC1F30A52C1F3130141F480154FF0E9
:1009B000000BD10702D100186D41521E00270446DA
:1009C00040F2FF11384601EB620A3E46804602467D
:1009D00000204FF48011FFF7E1FEC2197141BB18EE
:1009E00046EB0100B4EB030C75EB000C04D3E41AE6
:1009F00065EB000517460E46241908F101006D410C
:100A000080463428E3DDF91946EB0600091BA841AE
:100A100003D24FF0FF32134601E0002213461BEBD6
:100A2000070046EB0A51BDE8F04DFFF710BF70B567
:100A30008C1810F8015B15F0070301D110F8013B89
:100A40002A1106D110F8012B03E010F8016B01F810
:100A5000016B5B1EF9D12B0705D40023521E0DD468
:100A600001F8013BFAE710F8013BCB1A921C03E0B6
:100A700013F8015B01F8015B521EF9D5A142D8D3EE
:100A8000002070BDFEE7000010B517488AB0154978
:100A9000016006210024C0E901144FF40021C0E9DF
:100AA00003414FF440114161047644768476C47664
:100AB0000477447700F024FD00B1FEE701200194A3
:100AC0000294CDE90640039408900494009469468A
:100AD000054800F013FB00B1FEE7034800F002FEFA
:100AE0000AB010BD006400401C2F0020014800F037
:100AF00009BC00001C2F0020114810B50268092114
:100B000011801049C0F8CC1800214A1E01EB4103A6
:100B1000C3EB411300EB8303491CA3F89220102977
:100B2000F4DB82690021118041694068044A098828
:100B300001F07EFFBDE810400021014808F09ABF97
:100B4000481300200064004004480068416A0448DB
:100B5000C0F82C1BA0F5805002F0C4BC442F00202C
:100B600048230020FFF7C8BF30B4D0F88827D0F85A
:100B70008C474FF0FF3352F8212024F81130C2F394
:100B800007420121831883F89C17D0F8983730BCAE
:100B9000114618472DE9F04F9946DDE90A5A4FF002
:100BA000FF3BDDF824C040E0AB1A5BB20C78002BB1
:100BB00002DD04FA03F403E0C3F1000324FA03F4B2
:100BC000E6B202DDC5F1080301E0C2F10803DCB2C0
:100BD000844200D9044605EB0408FF2707FA08F30E
:100BE000C5F10805EF403B439CF800509E431D4073
:100BF00035432244D2B28CF80050072A07D900228C
:100C0000B9F1000F01D05B4600E00123194408F060
:100C1000FF05072D07D90025BAF1000F01D05B466B
:100C200000E001239C44001BC0B20028BCD1BDE8F9
:100C3000F08F7047D2F8CC184B6923F002034B6158
:100C4000411C0DD0B2F9EC19814202D1491EA2F823
:100C5000EC1900EB400002EBC000002180F82C19D9
:100C60004FF0FF307047000030B5A1B000201F905A
:100C700001211FA806F04CFB2B4C14222B492062AB
:100C80006846FFF75DFB0021684606F05EFB2749DA
:100C900020601422143105A8FFF752FB002105A89B
:100CA00006F053FB21496060142228310AA8FFF79F
:100CB00047FB1F490AA806F048FB1C49A060142204
:100CC0003C310FA8FFF73CFB00210FA806F03DFBCD
:100CD0001649E0601422503114A8FFF731FB0021BF
:100CE00014A806F032FB114D2061183DD5E9000132
:100CF000CDE91901002119A806F006FB6061D5E9CC
:100D00000201CDE91B0100211BA806F0FDFAA0613C
:100D1000D5E90401CDE91D0100211DA806F0F4FA72
:100D2000E06121B030BD00000000002054AE00089A
:100D3000A06D00200EB5084C4FF0FF3500232A4669
:100D40006946E06909F068FC0128F7D16946034863
:100D500004F002F9F2E70000000000204813002030
:100D60002DED028B8AB0164DDFED168A9FED168AA7
:100D700004464FF0FF36002332466946A86909F061
:100D80004BFC0128F7D19DED060A05F1240020EE69
:100D9000280AFDEEC00AC4ED010A9DED070A20EE07
:100DA000080ABDEEC00A84ED000A9DED081A21EE86
:100DB000081ABDEEC11A84ED021A80EC030ADAE7C4
:100DC000000000200000C8C20000C8428CB000260D
:100DD0000DF1200807AC06AD09F0D6F942462146D0
:100DE000284605F0D9FA78BB01F054FD00900DF1CA
:100DF0000A0003A9021D01F0C8FC6846014601A8CB
:100E0000891D02AA01F0A8FC04A80AAB811C05AA4E
:100E100001F0D4FC0F4F00230A226946786909F0DB
:100E2000F5FC00230A226946B86909F0EFFC0A20A4
:100E300096FBF0F100FB116626B94FF4804106489D
:100E400000F05CFD761C36B209F0BEF9012006F018
:100E50004FFAC1E7000000200008024001F0ACFD9D
:100E6000064C4FF0FF3500232A461946206A09F048
:100E7000D3FB0128F7D1FFF767FEF4E7000000205D
:100E8000244C8EB04FF0FF3500232A4605A9606937
:100E900009F0C2FB0128F7D1142209A96846FFF71F
:100EA0004FFA0DF1140C9CE80F0005F022FA9DEDAD
:100EB0000D0AF2EE040A20EE200ADFED170ABDEE5D
:100EC000C00A10EE100A9DED0C0A00B220EE200AB6
:100ED000DFED120ABDEEC00A10EE101A9DED0B0AEE
:100EE00009B220EE200ABDEEC00A10EE102A12B29E
:100EF0000092CDE90110DDF81E000390BDF822003C
:100F0000ADF81000DDE90601DDE9032309F0A1F8E1
:100F1000BAE70000000000200000C8420000C8C27C
:100F20002DE9F041234886B04FF00008016841F0F8
:100F300004010160016801F004010591016841F0BC
:100F400080010160016801F080010591016841F0B4
:100F500002010160016801F002010591016841F0A0
:100F6000010101600068144E00F001004FF440449C
:100F7000059001222146304600F0C4FC0F4F251198
:100F800000222946384600F0BDFC00940124CDE93A
:100F9000024869463046019400F0D8FB0320CDE9B1
:100FA0000240CDE900546946384600F0CFFB06B058
:100FB000BDE8F081303802400008024000040240E1
:100FC00070B50446D0F82408008818B300256619C7
:100FD00096F89C070F2818D020680088A84214D0E3
:100FE00096F82C0840B9D4F8202812B1294620469A
:100FF0009047012086F89C0796F82C082946401E49
:1010000086F82C08204605F053F96D1CEDB2802DB2
:10101000DDD370BDB4F91C082246AFF25B01FFF7C7
:1010200009FEA4F81C08D4F8CC08416941F002017B
:10103000416170BDF0B590F82040012C07D090F8C8
:101040002040022C03D0416A41F4802153E004681F
:10105000A5686D0105D4A5682D0102D4A568ED0031
:1010600046D5A4680125C4F30164A5401D608D68C0
:101070004FF4C0739DB1CE6835434E6845EAC6054E
:10108000066803EB0417F5514FF4C275076805EBCA
:1010900004150E697E51097D012905D009E00E88ED
:1010A000CD6845EA4655EBE701684E5946F480762F
:1010B0004E511179D2F805504FF4C67641EA052118
:1010C000056806EB0416A9511178D2F801204FF4F7
:1010D000C47541EA0221026805EB0415515100680C
:1010E00003EB0411425842F0010242500020F0BDCF
:1010F000416A41F4001141620120F0BD10B590F841
:101100002020012A09D090F82020022A05D0416A27
:1011100041F480214162012010BD3A48D0F80022FC
:1011200042F00102C0F80022D0F8002222F47C52E2
:10113000C0F80022D0F800224B6A42EA0322C0F82D
:1011400000220B7D01229A40D0F81C329343C0F854
:101150001C32CB69B3B9D0F80C329343C0F80C32CF
:101160008C894B6864F31F434C6900EBC404C4F8DA
:1011700040320C890B6864F31F434C6900EBC404D4
:10118000C4F84432CB69012B16D1D0F80C3213438A
:10119000C0F80C320C884B6864F31F434C6900EBB9
:1011A000C404C4F840320C89CB6864F31F434C6913
:1011B00000EBC404C4F844328B69002BD0F804322D
:1011C0000ED01343C0F804320B69002BD0F8143250
:1011D00008D01343C0F81432096A012904D008E08A
:1011E0009343EFE79343F5E7D0F81C121143C0F89F
:1011F0001C12D0F8001221F00101C0F800120020EA
:1012000010BD000000640040704730B590F82040E9
:10121000012C07D090F82040022C03D0416A41F401
:10122000802109E011B1012909D00CE00468E468CB
:1012300007E0416A41F400114162012030BD0468B9
:101240002469A407F5D04FF4D874056804EB0114A1
:101250002D5915F00405956005682D5942D0ED080B
:10126000556005682C59C4F34004D4604FF4DA7417
:10127000056804EB01142D5905F00F05156105688B
:101280002D59C5F30725956105682C59240C546127
:101290004FF4DC72046802EB0112A4581C7004685D
:1012A000A458240A5C700468A458240C9C70046838
:1012B000A258120EDA704FF4DE72046802EB0112CB
:1012C000A4581C710468A458240A5C710468A458CA
:1012D000240C9C710468A258120EDA7129B10129FC
:1012E00009D00DE06D0D1560BBE70068C16841F0E5
:1012F0002001C16004E00068016941F02001016142
:10130000002030BD2DE9F05F0546006800244669E5
:10131000D0F804908768D0F80CB0D0F810A0D0F8BE
:101320001880F10748D0F90714D001218160B8076F
:1013300003D5284600F003FA0CE0780702D54FF4F5
:10134000006407E0380702D54FF4805402E02846D5
:1013500000F0F4F9F80516D529684FF4807088601C
:10136000B80503D5284600F0ECF90CE0780502D565
:1013700044F4005407E0380502D544F4804402E008
:10138000284600F0DDF9F80316D529684FF48030BF
:101390008860B80303D5284600F0D5F90CE078033F
:1013A00002D544F4004407E0380302D544F4803405
:1013B00002E0284600F0C6F9300707D55FEACB60A7
:1013C00004D52968102044F40074C86070074FF0F9
:1013D000080707D55FEA0B7004D52868C760284660
:1013E00000F04AF9B00706D52868C068800702D027
:1013F000284600F043F9700607D55FEACA6004D5B5
:101400002968102044F480640861B00607D55FEABB
:101410000A7004D528680761284600F05FF9F006D5
:1014200006D528680069800702D0284600F057F9E1
:10143000B00308D55FEAC96005D529681020486067
:10144000284600F04DF9F00307D55FEA097004D58E
:1014500028684760284600F077F9300446D55FEAEF
:10146000497040D5F00504D55FEAC87001D044F05A
:101470000104B00504D55FEA887001D544F0020488
:10148000700504D55FEA487001D544F004043005C6
:1014900029D518F0700F26D008F07000402815D01C
:1014A00006DC102809D020280AD0302816D10AE0FE
:1014B00050280ED0602811D10EE044F008040DE051
:1014C00044F010040AE044F0200407E044F0400433
:1014D00004E044F0800401E044F4807428688169E9
:1014E00021F070018161296804204860002C05D03A
:1014F000686A204368622846FFF786FEBDE8F09FD1
:1015000070B5040003D094F8200010B104E001206D
:1015100070BD204600F082F82068016821F00201C9
:10152000016000F0F5F90546052604E000F0F0F949
:10153000401B0A2811D8206840688007F6D420682C
:10154000016841F00101016000F0E2F905460BE09D
:1015500000F0DEF9401B0A2806D9606A40F400302A
:10156000606284F82060D2E720684068C007EFD04E
:10157000207E0128206801683DD021F080010160B3
:10158000607E01282068016838D021F040010160A8
:10159000A07E01282068016833D021F0200101607D
:1015A000E07E0128206801682ED041F01001016022
:1015B000207F01282068016829D021F008010160FE
:1015C000607F01282068016824D021F004010160B7
:1015D000D4E902010843D4E90412114308436168C5
:1015E000491E08432168C86100206062012084F818
:1015F0002000002070BD41F08001C0E741F04001B3
:10160000C5E741F02001CAE721F01001CFE741F022
:101610000801D4E741F00401D9E7000000B50068F3
:10162000124987B088421FD11148016841F000710A
:1016300001600068694600F0007005904FF4C050EA
:1016400000900220019001200290032003900920C5
:101650000490084800F07AF800220521142000F0D8
:1016600007FA142000F0F8F907B000BD006400404C
:1016700040380240000002407047000010B58EB0B4
:1016800000240BAB03AA21460A94FFF7BEFD039882
:10169000ADF800000698022801D020B105E0012035
:1016A0008DF8020001E08DF8024007988DF80300E4
:1016B00000200BAA694603E0135C0C18401C237140
:1016C000079B8342F8D8044800230AAAC06909F09E
:1016D0004DF90EB010BD00000000002070477047AB
:1016E0007047000070B5044690F82000012804D02F
:1016F000606A40F40020606218E0022084F8200054
:101700002068016821F00101016000F001F905463F
:101710000EE000BF00F0FCF8401B0A2808D9606A00
:1017200040F400306062052084F82000012070BD84
:1017300020684068C007EDD1606270BD7047704797
:101740007047704770477047704700002DE9F84FA9
:10175000DFF87CB100224FF001084FF0030A4FF090
:101760000F090BF1040E00BF0B6808FA02F42340C6
:10177000A3426ED14D68022D01D0122D0ED1D50895
:1017800000EB850CDCF820505607F70E09FA07F637
:10179000B5430E69BE402E43CCF820600668550064
:1017A0000F790AFA05FC07F0030726EA0C06AF409A
:1017B000374307604E68012E05D0022E03D0112E4C
:1017C00001D0122E0ED18668CF6826EA0C06AF40F3
:1017D000374387604668A6430C79C4F300149440ED
:1017E00034434460C6688C6826EA0C06AC40344337
:1017F000C4604C68E40065D5364C256845F48045E6
:101800002560246822F0030504F480440094324CDF
:101810002E19D6F8084895072F0F09FA07F5AC439B
:101820002E4DA84201D1002524E02D4DA84201D122
:1018300001251FE02B4DA84201D102251AE02A4DB7
:10184000A84201D1032515E0284DA84202D1042564
:1018500010E037E0264DA84201D105250AE0254DCC
:10186000A84201D1062505E0234DA84201D1072554
:1018700000E00825BD402543C6F80858DBF80040C5
:101880005D464E689C43F60300D51C432C60DEF891
:10189000004075464E689C43B60300D51C432C603F
:1018A0000B4D08352C684E689C43F60200D51C434E
:1018B0002C60074D0C352C684E689C43B60200D551
:1018C0001C432C60521C102AFFF44EAFBDE8F88F69
:1018D000003C01404438024000300140000002401A
:1018E0000004024000080240000C024000100240C8
:1018F0000014024000180240001C024042694A40A5
:10190000426170470AB1816170470904FBE700003A
:10191000014880687047000030000020024881685C
:101920000278114481607047300000200B4810B5E8
:10193000016841F400710160016841F48061016057
:10194000016841F480710160032000F0B1F80020CB
:1019500000F006F800F03EF8002010BD003C024008
:1019600010B5014688B00022192000F081F8192036
:1019700000F072F813480024016841F00101016091
:10198000006805A900F001000690684600F03AF9E9
:1019900000F06EF90C494000B0FBF1F10C480B4A25
:1019A000491E026040F2E732C0E90324C0E9011495
:1019B00000F076FB10B1012008B010BD044800F023
:1019C000A7FBF9E74438024040420F000000014005
:1019D000C02F00201F4808B5016841F48041016014
:1019E000006800F4804000901A48001F016841F030
:1019F00080510160006800F080500090032000F0EA
:101A000057F8002211466FF00B0000F031F8002269
:101A100011466FF00A0000F02BF8002211466FF01B
:101A2000090000F025F800221146501F00F020F8B0
:101A300000221146101F00F01BF800220F21901EFB
:101A400000F016F800220F21BDE80840501E00F0FB
:101A50000FB800004438024000F01F0201219140FD
:101A60004009800000F1E020C0F80011704700003C
:101A7000F0B40E4B1B680C46C3F30223C3F10705F9
:101A8000042D00D90425191D072901D2002300E0E7
:101A9000DB1E012606FA05F1491E214099409E40B1
:101AA000761E16403143F0BC00F0B2BF0CED00E0F2
:101AB000064900F0070208684FF6FF03184040EAA5
:101AC0000220034A10430860704700000CED00E05C
:101AD0000000FA052DE9F0470E46050065D0DFF855
:101AE0001481D8F80000F7B200F00F00B04207D21E
:101AF00088F80070D8F8000000F00F00B04254D110
:101B000028683D4C810712D5400703D5206840F472
:101B1000E05020602878000703D5206840F460403A
:101B200020602068A96820F0F00008432060287831
:101B3000C0072DD0304968680839012812D0022822
:101B400013D0032811D00968890700292DDA2168EC
:101B500021F0030101432160FFF7DAFE814641F2E3
:101B6000883A0EE009688903EFE709688901ECE724
:101B7000FFF7CEFEA0EB0901514502D90320BDE8D5
:101B8000F0872068696800F00C00B0EB810FEFD19E
:101B9000D8F80010404601F00F01B14207D9077094
:101BA000006800F00F00B04201D00120E7E728787C
:101BB000400705D52068E96820F4E050084320601C
:101BC0002878000706D52068296920F4604040EA9B
:101BD000C100206000F05CF82168084AC1F30311DD
:101BE000515CC840064908600020FFF7B9FE00209C
:101BF000C5E70000003C024008380240B8AE0008CB
:101C00003C0000200F2202600C4A136803F003031B
:101C10004360136803F0F0038360136803F4E05338
:101C2000C36012684FF4E05303EAD2020261044831
:101C3000006800F00F00086070470000083802409C
:101C4000003C024001480068704700003C00002052
:101C50000448054900680968044AC1F38221515CBF
:101C6000C84070473C00002008380240C8AE000859
:101C70000448054900680968044AC1F34231515CCF
:101C8000C84070473C00002008380240C8AE000839
:101C9000154810B5006810F00C02144813D041101C
:101CA000042A0FD0082A0ED10F4C241F2268236863
:101CB00002F03F025B0207D52068C0F38810A0FB4A
:101CC000010106E0084610BD2168C1F38811A1FB9F
:101CD00000010023FEF7D2FA2168C1F30141491C3B
:101CE0004900B0FBF1F010BD083802400024F400B8
:101CF0002DE9F84F050076D02878DFF8F8B2BE4C11
:101D0000C00749D0DBF800105846C1F38101012912
:101D100008D00068C0F3810002280AD1201D0068A5
:101D2000400206D52068800336D568680028E2D0D6
:101D300032E06868B0F5803F10D0B0F5A02F206881
:101D400010D020F480302060206820F480202060B3
:101D50006868A0B1FFF7DCFD06460CE0206840F49F
:101D60008030F4E740F480202060F7E7FFF7D0FDF3
:101D7000801B642873D820688003F7D50CE0FFF738
:101D8000C7FD064605E000BFFFF7C2FD801B6428C3
:101D9000F0D820688003F7D42878DFF860828007C5
:101DA0004FF000093ED5DBF80010584611F00C0F3B
:101DB00009D00068C0F3810002280BD18D48001FB4
:101DC0000068400206D42068800715D5E86801281D
:101DD00009D111E0E868B8B10120C8F80000FFF7A8
:101DE00097FD064605E002E1FFF792FD801B022801
:101DF000C0D820688007F7D52068296920F0F8004E
:101E000040EAC10020600DE0C8F80090FFF780FDB7
:101E1000064604E0FFF77CFD801B02281FD82068DF
:101E20008007F7D42878000722D5724E7448696974
:101E30006C3671B101210160FFF76AFD074604E0CD
:101E4000FFF766FDC01B022809D830688007F7D568
:101E50000EE0C0F80090FFF75BFD074605E083E069
:101E6000FFF756FDC01B02287ED830688007F7D4E4
:101E70002878400768D5DFF87CA100270AF1380AE6
:101E8000DAF80000C0000BD4DAF8001041F08051FD
:101E9000CAF80010DAF80000012700F08050009026
:101EA000584E3068C00510D4306840F480703060FF
:101EB000FFF72EFD009005E0FFF72AFD0099401A7C
:101EC000022851D83068C005F6D54A4EA868683651
:101ED00001280FD00528306810D020F001003060B4
:101EE000306820F004003060A868B8B1FFF710FD3A
:101EF00000900FE0306840F00100F4E740F004008B
:101F00003060F7E7FFF704FD0099411A41F288308D
:101F1000814264D830688007F4D50EE0FFF7F8FC02
:101F2000009007E0FFF7F4FC0099411A41F2883075
:101F3000814254D830688007F4D42FB1DAF8001009
:101F400021F08051CAF80010A869C0B3DBF8001076
:101F5000C1F3810102294AD00228484607D0C8F8B7
:101F60006000FFF7D5FC00E039E005463AE047465F
:101F7000C8F86000FFF7CCFC064604E0FFF7C8FC99
:101F8000801B02282BD820688001F7D4D5E90701EF
:101F90000843A96A1C4A490802EB01416A6A41EAFE
:101FA0008211084395F82C1040EA01611148001F86
:101FB000016001203866FFF7ABFC054605E014E040
:101FC000FFF7A6FC401B022809D820688001F7D53E
:101FD0000BE000BFFFF79CFC401B022802D9032046
:101FE000BDE8F88F20688001F4D40020F8E70120D4
:101FF000F6E700000838024000380240000047427F
:10200000800E4742007000400000FFFF4FF0E021CB
:102010000428086903D020F004000861704740F0EC
:102020000400FAE710B5401EB0F1807F01D3012013
:1020300010BD4FF0E02460610F21601700F0E8FC54
:102040000020A06107202061002010BD704770476C
:1020500030B590F83820012A20D0012280F83820AD
:10206000022380F8393003685C6824F070045C60F7
:1020700003685C680D682C435C6003689C6824F00E
:1020800080049C6003689C6849680C439C6080F8ED
:102090003920002180F83810084630BD022030BDBC
:1020A00010B5040003D094F8390010B107E0012006
:1020B00010BD002084F83800204600F00DF8022002
:1020C00084F83900211D206800F0E8FF012084F821
:1020D0003900002010BD000008B50068B0F1804F45
:1020E00012D10A48016841F0010101600068002234
:1020F00000F00100009006211C20FFF7B9FCBDE8AC
:1021000008401C20FFF7A8BC08BD00004038024072
:102110000168CA6842F00102CA600068016841F0C3
:10212000010101600020704770B5044690F8380046
:10213000012817D0012584F83850022084F839008E
:102140002068826822F0770222F47F428260086869
:10215000502837D00DDC202859D005DC88B3102852
:1021600041D151E0022070BD302853D040283AD1EF
:102170003FE060282ED070280BD0B0F5805F03D0F0
:10218000B0F5005F2FD110E02068816821F00701D1
:1021900015E0CB68D1E90121206800F0DFFF21685C
:1021A000886840F0770088601DE0CB68D1E90121A4
:1021B000206800F0D3FF2068816841F4804181608D
:1021C00011E01EE0CA684968206800F0D9FF50217C
:1021D000206806E0CA684968206800F0E2FF6021D4
:1021E000206800F0C5FF84F83950002084F83800DA
:1021F00070BDCA684968206800F0C2FF40212068AD
:10220000EFE700212068ECE710212068E9E72021B2
:102210002068E6E730212068E3E7704770B50446A0
:10222000006801694FF00005C943890715D4C168EA
:10223000C943890711D4E91E016101202076206875
:1022400080698007204602D0FFF7E7FF04E000F036
:1022500098F8204600F096F8257620680169C94371
:10226000490717D4C168C943490713D46FF0040163
:102270000161022020762068806910F4407F2046AA
:1022800002D0FFF7CAFF04E000F07BF8204600F020
:1022900079F8257620680169C943090716D4C16811
:1022A000C943090712D46FF00801016104202076A8
:1022B0002068C0698007204602D0FFF7AEFF04E027
:1022C00000F05FF8204600F05DF82576206801698F
:1022D000C943C90617D4C168C943C90613D46FF0EE
:1022E00010010161082020762068C06910F4407F49
:1022F000204602D0FFF791FF04E000F042F82046AC
:1023000000F040F8257620680169C943C90708D163
:10231000C168C943C90704D1891E0161204600F084
:1023200033F820680169C943090609D4C168C94363
:10233000090605D46FF0800101612046FFF786FE93
:1023400020680169C943490609D4C168C9434906DF
:1023500005D46FF040010161204600F02DF820689F
:102360000169C94389060BD4C168C943890607D4EA
:102370006FF0200101612046BDE87040FFF767BEA5
:1023800070BD70477047000038B5044600680849C2
:10239000884201D1FFF7C2FA2068B0F1804F06D120
:1023A0000020009003486946006A08F03DFB38BDF4
:1023B0000000014000000020704770B5040004D008
:1023C00094F83900002510B106E0012070BD84F8B2
:1023D0003850204600F022F8242084F83900206884
:1023E000C16821F40051C160204601F0D7F820688F
:1023F000016921F4904101612068416921F02A01BD
:1024000041612068C16841F40051C160E56320204A
:1024100084F8390084F83A00002070BD00B50068E7
:102420000E4987B0884217D10D48016841F010016C
:1024300001600068694600F0100005904FF4C0602C
:1024400000900220019001200290032003900720B9
:1024500004900448FFF77AF907B000BD001001406E
:1024600044380240000002402DE9F843044690F849
:1024700039001F4616460D46202850D1A5B19EB101
:1024800094F8380001284AD0012084F838004FF031
:102490000008C4F83C80212084F83900FFF738FA9E
:1024A000A6848146E68426E00120BDE8F883E08C1E
:1024B000401EE084A0684B46B0F5805F4FF00002FC
:1024C0004FF080012046009703D001F0BDF9E8B934
:1024D0000DE001F0B9F9C8B928882168C0F30800F7
:1024E0004860206908B16D1C05E0AD1C03E021685F
:1024F00015F8010B4860E08C0028D8D14B4600222B
:1025000040212046009701F09FF908B10320CCE755
:10251000202084F8390084F838800020C5E70220A4
:10252000C3E7FEE770B50D4C0025C4F8A8520C486F
:10253000016821F440010160016841F480010160FB
:10254000C4F8AC52022004F52A7402F0DBFD01202D
:102550002060022002F0D6FD256070BD0080404260
:102560000004024003480121C0F8A812C0F8AC12D0
:10257000704700000080404270B50D4C0025C4F843
:10258000A8520C48016821F440010160016841F43F
:10259000800101600126C4F8AC62022004F52A74AF
:1025A00002F0B0FD2660022002F0ACFD256070BD97
:1025B00000804042000402402DE9F0478146164861
:1025C0000024016821F44001016001680160134E9C
:1025D000254627464FF00108C6F8A872022002F0EF
:1025E00091FDC6F8A8826006040ED6F82C0208B148
:1025F000641CE4B2012002F085FD6D1CEDB2082DD3
:10260000EAD3B9F1000F04D0FFF78CFF2046BDE8F4
:10261000F087FFF7B1FFF9E7000402400080404275
:102620002DE9F04106461448016821F4400101609B
:10263000016841F480010160104C0027C4F8A872C1
:102640003D464FF00108F009C4F8AC027006060ED2
:10265000022002F057FDC4F8A882022002F052FDC9
:10266000C4F8A872022002F04DFD6D1CEDB2082DD9
:10267000E9D3BDE8F0810000000402400080404240
:1026800070B50D48016821F440010160016841F412
:1026900080010160094C0120C4F8AC02C4F8A80212
:1026A000042004F52A7402F02DFD00256560042045
:1026B00002F028FD256070BD000402400080404209
:1026C0000E4810B5016821F440010160016841F431
:1026D000800101600A4C0020C4F8A802C4F8AC02D2
:1026E000042004F52A7402F00DFD012020606060D2
:1026F000BDE81040042002F005BD000000040240C7
:102700000080404270B512480024016821F4400165
:102710000160016801600F4D0126C5F8AC623046CA
:1027200002F0F0FCC5F8A862012002F0EBFC07E023
:10273000641CE4B2FA2C03D9FFF7C2FF012070BD7C
:10274000D5F82C020028F3D1C5F8A80270BD00000E
:1027500000040240008040427CB514460D46064607
:102760006B4606223B21682000F0C6F800280BD1FA
:10277000BDF8001049BA3180BDF8021049BA29806D
:10278000BDF8041049BA21807CBD7CB514460D46C5
:1027900006466B4606224321682000F0ADF800286B
:1027A0000BD1BDF8001049BA3180BDF8021049BA0A
:1027B0002980BDF8041049BA21807CBD2DE9F04183
:1027C0000D462DED028B84B00646984617469FEDC8
:1027D0002C8A02A9684603F001FF10F0FF0448D1DB
:1027E000BDF9000000EE100AB8EEC00A20EE080A9B
:1027F000BDEEC00A10EE100A3080BDF9020000EEF6
:10280000100AB8EEC00A20EE080ABDEEC00A10EEAB
:10281000100A2880BDF9040000EE100AB8EEC00AC4
:1028200020EE080ABDEEC00A10EE100A3880B5F995
:102830000000FDF74EFF41EC180BB6F90000FDF764
:1028400048FF41EC100BB0EE481AF0EE681A01F0A8
:1028500073FB9FED0C1B51EC100B53EC112BFDF790
:1028600057FE9FED0A1B53EC112BFDF7AAFDC8E99B
:10287000000104B02046BDEC028BBDE8F0810000F1
:102880009A99193E775AF01ADCA54C4000000000D6
:102890000080664008B56B4602224121682000F0A6
:1028A0002BF8BDF8000040BA00B2FDF712FF9FED13
:1028B0000D1B53EC112BFDF79DFE9FED0C1B53ECF4
:1028C000112BFDF77EFDFDF728FF00EE100ADFED6E
:1028D000090A20EE200ABDEEC00A10EE100A00B26E
:1028E00008BD00000000000000407540A4703D0AD3
:1028F000D74342400000C8422DE9F0411D4614462E
:102900000F460646FFF7BCFE7006000EFFF788FE76
:10291000FFF7F8FE20B1FFF7D3FE0120BDE8F081FC
:102920003846FFF77DFEFFF7EDFEFFF7A9FE012019
:1029300000EB4600C0B2FFF773FEFFF7E3FE09E0CD
:10294000012C0DD05FF00100FFF736FE641E05F884
:10295000010BE4B2002CF3D1FFF7B2FE0020DDE75B
:102960000020F1E72DE9F0411E4615460F460446CA
:10297000FFF786FE6006000EFFF752FEFFF7C2FE6D
:1029800060B93846FFF74CFEFFF7BCFE00240CE0B0
:10299000305DFFF745FEFFF7B5FE20B1FFF790FE73
:1029A0000120BDE8F081641CE4B2AC42F0D3FFF733
:1029B00087FE0020F5E7000010B5134886B04FF001
:1029C0008041016053210024C0E90114611EC0E967
:1029D0000314FFF765FB00B1FEE74FF48050009051
:1029E00069460948FFF7A0FB00B1FEE7049404A97B
:1029F00005480594FFF72CFB00B1FEE70248FFF7FE
:102A000087FB06B010BD0000442F0020FEE7704792
:102A10000907090E002806DA00F00F0000F1E02097
:102A200080F8141D704700F1E02080F80014704712
:102A30002DE9F0411446174A054603460020106070
:102A400008E000BFD4F8F0691F69401C3E441C3305
:102A5000C4F8F0698842F5D31060D4F8F009224632
:102A60000844C4F8F009284600F016F8B4F8A02E7F
:102A700041F2E44000212044521E07F09BF9B4F8D3
:102A8000A02E04F6A460BDE8F0410021521E07F01C
:102A90007EB90000F02E0020F0B507460E46B2F8D1
:102AA000A00ED2F8F01930441446884201D9002013
:102AB000F0BD002526E000BFB4F8A01EC5EBC500A0
:102AC00004EB810101F5805107EB8000C1F8E404BB
:102AD000B4F8A01E04EB8101C1F8A40EB4F8A01E46
:102AE000491CA4F8A01E017A062903D0082901D0A8
:102AF000092906D10169C0682246FFF7CDFF0028E9
:102B0000D6D06D1CB542D7D30120F0BD10B507F06B
:102B10009DF9002010BD10B5044603F07FFA204651
:102B200003F030FA002010BD10B5044604F0ACFBF1
:102B3000204604F067FB002010BD0000D0F8F0181C
:102B4000097869B900210A4606E000BFD0F8F438D8
:102B500043F82120491CC9B290F8ED388B42F5D8D2
:102B60000020704730B401EBC102846802254FF0A9
:102B7000FF3305EB4205635300238468062505EB0C
:102B80004202A35230BCC9B206F0FEBC30B401EB25
:102B9000C102846804254FF0FF3305EB42056353FF
:102BA0008368C9B213F8124024F0010403F81240FC
:102BB00030BC06F0E9BC00002DE9F8434FF4C054E6
:102BC000270405460346066A6A4639460020B04790
:102BD0000146204881423BD04FEA000847EA0441C1
:102BE000D5F820C00E462B466A460020E0474045F7
:102BF0002ED031462E6A2B466A460020B0470099F7
:102C000019BB406908B314482E6A40EA04412B46B8
:102C10006A460020B047DFF84490C0F814900E4890
:102C20002E6A401C40EA04412B466A460020B04709
:102C3000C0F8149008482E6AC01C40EA04412B4694
:102C40006A460020B047C0F81490641CA4B2C5E7DF
:102C5000BDE8F883AC6D002002000018C9310008FF
:102C60002DE9F8430446002503464FF0C056076A95
:102C70006A4631462846B8470146204881423AD044
:102C8000B1468046266A49EA054123466A46002045
:102C9000B04740452FD0A16805EBC506022000EBE8
:102CA0004607C85F22461649FDF7C4FFA168C8530E
:102CB000D4F8CC08416941F002014161A1680420C7
:102CC00000EB4607C85F22460E49FDF7B3FFA16837
:102CD000C853D4F8CC08416941F002014161A168B0
:102CE0000020062201F81600A16802EB46026D1CC6
:102CF0008852EDB2C6E7BDE8F8830000AC6D002055
:102D0000652B00088D2B00083EB50446D0F89007CF
:102D10000088A0B120686946008800F5E060ADF841
:102D2000000001208DF8030000208DF8020094F8C7
:102D300064078DF80400204602F058F93EBDB4F94E
:102D400094072246AFF23F01FDF774FFA4F8940701
:102D5000D4F8CC08416941F0020141613EBD38B56B
:102D600014460346056A6A460020A847009901B93F
:102D70004461084638BD00002DE9FE4306460F4673
:102D8000D6F828190025A81E086107EB4700C0EBFC
:102D9000471006EB8004DFF8CC8094F82500022869
:102DA00003D00EE06D1CADB201E04FF09459D6F89F
:102DB00020C049EA0541334602AA0020E0474045C9
:102DC000F0D194F82500012803D00EE06D1CADB2BF
:102DD00001E04FF09059D6F820C049EA054133464A
:102DE00002AA0020E0474045F0D194F82400411C9D
:102DF000A94234D894F82510022907D11A49356A16
:102E000041EA0041334602AA0020A84794F8250071
:102E1000012809D194F824001449356A41EA004197
:102E2000334602AA0020A8474FF0FF30A4F89200D2
:102E3000852084F826000E4D94F83200CDE9000577
:102E4000238E14F8242F3046617806F0D5FCA56057
:102E50006078012803D1F9B2304606F045FBBDE8A1
:102E6000FE830000AC6D00200300801203000012FE
:102E7000000004051FB501EB4102C2EB411100EB5C
:102E800081014A6B0AB98A6B4A630392012203AB40
:102E9000CDE90032029201F13C0391F83220098E13
:102EA00001F068FF04B010BD70B501EB4104C4EB44
:102EB000411100EB81018C6BA018402801D9FF2043
:102EC00070BD002006E026181D5C0E44401C86F8EC
:102ED0003C50C0B29042F6D3886B10448863002007
:102EE00070BD00002DE9F04F0446D0F8CC088B46A9
:102EF00098464169914621F002014161B4F9EC091B
:102F0000002604F62C154FF0FF3A401C08E000BFE5
:102F1000B9F1000F01D0297849B1761C36B21835C5
:102F2000B04201DB082EF3DB5046BDE8F08FB04223
:102F300001D1A4F8EC09204602F039FE07464046CC
:102F4000411C00D1504604F58052D2F8241BB942EE
:102F500008D9C91B814205D93918C2F8241B21465A
:102F600006F0DEFD08EB0700C5E903B0C5E901493D
:102F700009986861012028703046D6E706F058BCF1
:102F800010B504F0D8F9BDE81040FEF7C7BC00004A
:102F900030B5254893B00025016841F080510160AB
:102FA000006800F0805011902048016841F4804191
:102FB00001600068022400F480401190012000901C
:102FC000000401908001CDE90640082008904FF4EC
:102FD000A870CDE9090404200B906846FEF788FE2E
:102FE00000B1FEE70CA90F2081E831004FF4A0509A
:102FF0000F904FF48050109005210CA8FEF76AFD49
:1030000000B1FEE7FEF71EFE4FF47A71B0FBF1F05F
:10301000FFF708F80420FEF7F9FF00220F21501EE9
:10302000FEF726FD13B030BD40380240007000406E
:103030001048016841F4700101600F48016841F0D7
:10304000010101600C4A00210832116002680B4B3B
:103050001A400260031D0A4A1A60026822F48022A4
:10306000026005480C30016002495806803908604A
:103070007047000088ED00E000380240FFFFF6FED8
:10308000103000240148FFF7C9B80000C02F00200D
:103090000148FFF7C3B80000442F0020F0B50268D4
:1030A000234B244D244E254F254C4FF0804C984205
:1030B00009D0604507D0A84205D0B04203D0B8423D
:1030C00001D0A04204D122F0700E4A6842EA0E02FA
:1030D00098421BD0604519D0A84217D0B04215D0F5
:1030E000B84213D0A04211D0164DA8420ED0164DB2
:1030F000A8420BD0154DA84208D0154DA84205D0C6
:10310000144DA84202D0144DA84203D122F44075B8
:10311000CA682A4302608A68C2620A688262984268
:1031200001D0A04201D10969016301214161F0BDD3
:10313000000001400004004000080040000C004076
:1031400000040140004001400044014000480140AB
:1031500000180040001C00400020004010B58468AA
:1031600042EA032224F47F440A432243826010BDD2
:10317000826822F070020A4342F0070181607047C2
:1031800010B5036A046A24F001040462846924F01F
:10319000F00444EA021423F00A020A438461026242
:1031A00010BD10B5036A23F0100303628369046A3B
:1031B00023F4704343EA023224F0A00343EA0111EE
:1031C0008261016210BD0000F8B5044690F86A07FC
:1031D0000D46E0B3022A03D0032A01D0052A39D1D3
:1031E000266A23466A464FF0C0510020B047281A8D
:1031F0001C2190FBF1F0C5B2A16805EBC5060220C9
:1032000000EB4607C85F22461349FDF713FDA1688E
:10321000C853D4F8CC08416941F002014161A1686A
:10322000042000EB4607C85F22460C49FDF702FD6B
:10323000A168C853D4F8CC08416941F0020141614A
:10324000A168002001F816002946204600E001E0B0
:10325000FFF788FC0020F8BD652B00088D2B0008C7
:103260002DE9F0478AB007464FF4C870ADF80C005E
:1032700003259048CDE90005012403AB002241F26B
:1032800017010294384601F075FD3868894E4FF4F5
:1032900090590088361D00F5C0600390386803AB74
:1032A000012200888DF8144000F5B060049000966B
:1032B000CDE901544946384601F05CFD0096CDE960
:1032C000015404AB02224946384601F053FDA6F1F1
:1032D0000808CDF80080CDE9015405AB032249462A
:1032E000384601F047FD386800888DF8104000F539
:1032F000C070039000200590142006903868008864
:10330000022801D004283ED16B4807906B480890F2
:103310000096CDE901544FF4C05903AB0122494650
:10332000384601F027FDCDF80080CDE9015404AB0B
:1033300002224946384601F01DFD0096CDE90154B0
:1033400005AB03224946384601F014FD0096CDE94D
:10335000015406AB05224946384601F00BFD0096A4
:10336000CDE901544FF4D05907AB01224946384604
:1033700001F000FD0096CDE9015408AB0222494658
:10338000384601F0F7FC38684FF0FE090088012844
:1033900031D14FF4C17003904948059049480690D7
:1033A0008DF810900096CDE901544FF4A05A03AB6C
:1033B00001225146384601F0DDFCCDF80080CDE910
:1033C000015404AB02225146384601F0D3FC00966A
:1033D000CDE901544FF4B05A05AB012251463846AD
:1033E00001F0C8FC0096CDE9015406AB022251461B
:1033F000384601F0BFFC38680088032830D14FF40C
:10340000C27003903048059006908DF81090009699
:10341000CDE9015441F2014A03AB0122514638463D
:1034200001F0A8FCCDF80080CDE9015404AB0222E4
:103430005146384601F09EFC0096CDE9015441F218
:10344000016A05AB01225146384601F093FC009613
:10345000CDE9015406AB02225146384601F08AFC00
:1034600040F28D1003908DF810901848009605904A
:10347000CDE9015441F2024903AB012249463846E5
:1034800001F078FCCDF80080CDE9015404AB0222B4
:103490004946384601F06EFC0096CDE9015405AB73
:1034A000012241F20261384601F064FC0AB0BDE835
:1034B000F0870000042F002020006460200062607C
:1034C0002000092F2000052F2000102F2000502F52
:1034D0009F2803D1087808B1014870470020704741
:1034E000300009062DE9F041064640F2F31502F0DE
:1034F0005EFB06F580530246D3F8240B871806F6C8
:103500002C10002104461FE090F800C05FEACC7C3C
:1035100017D0D0F810C0BC4527D8D0F814C0BCF1E3
:10352000000F1DD0B2FBFCFE0CFB1E2EACEB0E0CF4
:103530004FF0030EC0F810C080F800E0AC4500D298
:103540006546491C09B21830B6F9ECC98C45DBDA7E
:1035500031462846C3F8245B06F0E2FA002517E05E
:103560004FF0020C80F800C0EBE7ACEB070CC0F8A2
:1035700010C0E3E72078810707D520F00200207013
:10358000A26812B1E168606890476D1C2DB21834D2
:10359000B6F9EC09A842EDDABDE8F0812DE9F04179
:1035A00004460068016921F44052E1681143016159
:1035B0002168C86849F20C6290432369A268E569F2
:1035C0001A4363692B431A430243CA60216848695E
:1035D00020F44072A06910434861E1696425B1F5A7
:1035E000004F9748974A21684FF032083FD09142E8
:1035F00001D081427CD1FEF73BFB00EBC00101EB27
:10360000001061688900B0FBF1F6FEF731FB00EBBA
:10361000C00101EB001061688900B0FBF1F0B0FB64
:10362000F5F06FF01801484306EB800108EB01103C
:10363000B0FBF5F000F0F006FEF71AFB00EBC0015E
:1036400001EB001061688900B0FBF1F0B0FBF5F010
:1036500006EB0016FEF70CFB00EBC00101EB0010BF
:1036600061688900B0FBF1F7FEF702FBD2E09142FE
:1036700001D081423DD1FEF7FBFA00EBC00101EB26
:10368000001061684900B0FBF1F0B0FBF5F00601F5
:10369000FEF7EEFA00EBC00101EB00106168490093
:1036A000B0FBF1F7FEF7E4FA00EBC00101EB00100C
:1036B00061684900B0FBF1F0B0FBF5F06FF0180164
:1036C000484307EB800108EBC100B0FBF5F000F0C8
:1036D000F80006EB4006FEF7CBFA00EBC00101EB69
:1036E000001061684900B0FBF1F7FEF7C1FA3CE059
:1036F00055E0FEF7ADFA00EBC00101EB0010616888
:103700004900B0FBF1F0B0FBF5F00601FEF7A0FABE
:1037100000EBC00101EB001061684900B0FBF1F75C
:10372000FEF796FA00EBC00101EB0010616849005A
:10373000B0FBF1F0B0FBF5F06FF01801484307EB78
:10374000800108EBC100B0FBF5F000F0F80006EBDB
:103750004006FEF77DFA00EBC00101EB0010616846
:103760004900B0FBF1F7FEF773FA00EBC00101EB83
:10377000001061684900B0FBF1F0B0FBF5F06FF0AC
:103780001801484307EB800108EBC100B0FBF5F0DE
:1037900000F00700216830448860BDE8F081FEF742
:1037A00057FA00EBC00101EB001061688900B0FB23
:1037B000F1F6FEF74DFA00EBC00101EB0010616875
:1037C0008900B0FBF1F0B0FBF5F06FF01801484351
:1037D00006EB800108EB0110B0FBF5F000F0F006FD
:1037E000FEF736FA00EBC00101EB001061688900BA
:1037F000B0FBF1F0B0FBF5F006EB0016FEF728FA8F
:1038000000EBC00101EB001061688900B0FBF1F72B
:10381000FEF71EFA00EBC00101EB001061688900A1
:10382000B0FBF1F0B0FBF5F06FF01801484307EB87
:10383000800108EB0110B0FBF5F000F00F00A9E7E4
:1038400000140140001001402DE9F0419846174650
:103850000E460446069D1DE0681C1BD02DB1FEF7E8
:1038600057F8A0EB0800A84214D92068C16821F4D9
:10387000D071C1602068416921F0010141612020BF
:1038800084F8390084F83A00002084F838000320D6
:10389000BDE8F0812068006836EA000004D000200E
:1038A000B842D9D00020F3E70120F9E7FEE77047DE
:1038B0000FB4054B10B503A9044A029800F012FE9C
:1038C00010BC5DF814FB00009D5B0008142F002065
:1038D00003B401984100009850EAC12018BF0420A9
:1038E0004A0D18BF40F0010040F2FF72B2EB515F89
:1038F00008BF40F00200012808BF052002B0704751
:1039000070B5C1482DED020B2DED0E8B82B0119DCF
:1039100025F000449FEDBEDB9FEDBFEB84423EDB14
:10392000A4F140511098A1F17F6108430FD0BC4829
:10393000844202DC28D1109830B39DED100B02B008
:10394000BDEC0E8B02B0BDE8704000F069BC9DED8F
:10395000100B53EC1D2B51EC100BFCF7D9FD9DED1A
:10396000100B41EC180B53EC1E2B51EC100BFCF719
:10397000CFFD53EC182BFCF724FD41EC100B02B0EB
:10398000BDEC0E8B02B070BD012000F08DFC02B0CA
:10399000BDEC0E8B02B0BDE8704000F055BCA148F4
:1039A0009FEDA18B844256DA9DED100BB4F1795F47
:1039B0000ADA51EC100BFFF78BFF042808BF00F068
:1039C00053FC9DED100BDAE753EC102B51EC100B70
:1039D000FCF79EFD41EC190B95480621B0EE490A13
:1039E000F0EE690A784400F09FFB53EC192B51EC80
:1039F000100BFCF78DFD41EC1A0B8E48B0EE490A16
:103A0000F0EE690A0421784400F08EFB53EC192B88
:103A100051EC100BFCF77CFD53EC182BFCF7D1FCA0
:103A200041EC100B51EC1A0B53EC102BFCF7E2FDA0
:103A3000CDE900019DED000B53EC102B9DED100B1B
:103A400051EC100BFCF764FD9DED101B53EC112B9A
:103A5000FCF7B7FCD2E09DED100B51EC100B01F020
:103A6000C8FF53EC182BFCF750FD9FED730BCDE90D
:103A7000000153EC102B9DED000B51EC100BFCF7EB
:103A800047FD41EC190B6E480621B0EE490AF0EEF5
:103A9000690A784400F048FB53EC192B51EC100BE9
:103AA000FCF736FD41EC1B0B6648B0EE490AF0EE20
:103AB000690A0421784400F037FB53EC192B51ECD0
:103AC000100BFCF725FD53EC182BFCF77AFC41ECAE
:103AD0001C0B51EC190B06F082F941EC180B5A48FB
:103AE0009FED5BABA04222DC53EC1C2B51EC1B0B7B
:103AF000FCF780FDCDE900019DED000B51EC180BAA
:103B000053EC102BFCF704FD53EC182BFCF759FC7D
:103B100053EC1A2BFCF7FCFC53EC1D2BFCF7F2FCCE
:103B200053EC1E2BFCF7F1FC41EC100B5FE08DED2C
:103B3000008B002000909DED000B51EC180B53EC16
:103B4000102BFCF73EFC9DED000B41EC1E0B53ECE3
:103B5000102B51EC100BFCF7DBFC53EC192BFCF792
:103B6000D4FC53EC1E2BFCF745FD41EC190B53EC38
:103B70001C2B51EC1B0BFCF73DFD41EC1B0B53ECDC
:103B80001A2B51EC190BFCF7C3FC53EC1D2BFCF763
:103B9000BCFC41EC190B53EC1A2B51EC180BFCF745
:103BA000B7FC53EC1B2BFCF7B3FC53EC192BFCF7C5
:103BB000A9FC9DED000B41EC180B53EC1A2B51ECBA
:103BC000100BFCF7A5FC9FED249B53EC192BFCF785
:103BD0009CFC41EC100B51EC180B53EC102BFCF738
:103BE00091FC53EC192BFCF790FC41EC100B002DD1
:103BF0003FF7C5AE51EC100B81F0004141EC100BCA
:103C0000BDE60000000000000000F03F00000000E2
:103C1000075C143326A6913C182D4454FB21F93F30
:103C20000000F07F0000E03F000000000000F03FD7
:103C30008881000096810000000000000000E03F45
:103C4000DA800000E88000003333EF3F000000001E
:103C50000000000000000040182D4454FB21E93F03
:103C600070B59B482DED020B2DED068B079D25F0C1
:103C70000044A04218DC9748844202DC0AD106982E
:103C800040B19DED060BBDEC068B02B0BDE8704067
:103C900000F0C6BA002DCCBF9FED8F0B9FED900BAF
:103CA000BDEC068B02B070BD8F48A04215DD8F4879
:103CB000A042D8BF4FF0FF3458DD9DED060B51EC0C
:103CC000100BFFF705FE042808BF00F0CDFA9DEDAC
:103CD000060BBDEC068B02B070BD9DED060B51ECE2
:103CE000100B01F086FECDE9060181489FED828B25
:103CF000A0423CDD8248A0421FDD00249FED82AB44
:103D00009DED060B53EC1A2B51EC100BFCF759FBF5
:103D10009DED060B41EC190B53EC1A2B51EC100BDB
:103D2000FCF7F6FB53EC182BFCF7ECFB53EC192BD0
:103D3000FCF760FCCDE9060149E09DED060B01248E
:103D400053EC182B51EC100BFCF73BFB9DED060BD5
:103D500041EC190B53EC182B51EC100BFCF7D2FB78
:103D600053EC192BFCF746FCCDE906012FE068481F
:103D7000A0421FDD02249FED689B9DED060B53ECD6
:103D8000192B51EC100BFCF7C3FB53EC182BFCF771
:103D900018FB9DED060B41EC180B53EC192B51EC65
:103DA000100BFCF7AFFB53EC182BFCF723FCCDE911
:103DB00006010CE09DED060B032453EC102B9FED48
:103DC000580B51EC100BFCF715FCCDE906019DEDED
:103DD000060B53EC102B51EC100BFCF799FB41EC4C
:103DE000180B53EC182BFCF793FB41EC190B4E48C6
:103DF0000621B0EE490AF0EE690A784400F094F921
:103E000053EC182B51EC100BFCF782FB41EC180B18
:103E10004648B0EE490AF0EE690A0521784400F000
:103E200083F953EC192B51EC100BFCF771FB41ECAF
:103E3000100B51EC180B53EC102B002C0EDAFCF786
:103E4000C0FA9DED061B53EC112BFCF761FB9DEDB9
:103E5000061B53EC112BFCF758FB35E0FCF7B1FACD
:103E60009DED061B53EC112BFCF752FB41EC100BA4
:103E70002F48784400EBC40090ED001B51EC100B70
:103E800053EC112BFCF73EFB9DED061B53EC112B65
:103E9000FCF738FB41EC100B2648784400EBC400DB
:103EA00090ED001B51EC100B53EC112BFCF72DFB8C
:103EB00041EC100B002DA2BFBDEC068B02B070BD13
:103EC00051EC100B81F0004141EC100B01E70000B8
:103ED000000010440000F07F182D4454FB21F93FEE
:103EE000182D4454FB21F9BF0000DC3F0000203EA8
:103EF0000000F33F00000000000000000000F03F61
:103F00000000E63F0000000000000000000000404C
:103F10000080034000000000000000000000F83FA7
:103F2000000000000000F0BF2A7E0000E07D0000DD
:103F30006A7D0000227D000070B56B4E2DED040BF4
:103F40002DED028B82B0DDF81CC0DDE905235C425B
:103F50002CF000411C4341EAD474049D22F000403F
:103F6000B44205D86C422C4340EAD474B4420BD915
:103F70009DED061B9DED040B02B0BDEC028B04B061
:103F8000BDE8704000F056B9ACF14054A4F17F6434
:103F90001C430BD0022404EAAC7444EAD2740543F7
:103FA0009FED538B9FED542B07D015E09DED040B37
:103FB00051EC100B00F040FF42E0002C11BF012C2F
:103FC0009DED040B02B0BDEC028B04BF04B070BDCC
:103FD000022C38D0032C3BD00B439FED491B9FEDA7
:103FE0004A0B0AD0B14218D1B04209D121F0804128
:103FF00020F08040079105900FE0002A15DA10E0CC
:10400000434B7B44002C08BF93ED000B0DD0012CDB
:1040100010D0022C17D0032C1AD0B0421DD1002A88
:1040200003DAB0EE410AF0EE610A02B0BDEC028B99
:1040300004B070BD93ED000B51EC100B81F000410A
:1040400041EC100BF1E7B0EE480AF0EE680AECE73D
:10405000B0EE420AF0EE620AE7E7401A00153C288B
:10406000C8BF8DED000B19DCBCF1000FBEBF10F115
:104070003C0F9FED290B8DED000B0FDB9DED060B2B
:1040800053EC102B9DED040B51EC100BFCF7B2FA26
:1040900001F0AFFC00F0D0FECDE90001002C08BF1C
:1040A0009DED000BC1D0012C10D0022C9FED1C0BFC
:1040B00053EC102B9DED000B51EC100B0DD0FCF7C9
:1040C00021FA53EC182BFCF71DFAB9E7019880F0A0
:1040D000004001909DED000BA7E7FCF713FA53ECAD
:1040E000182BFCF712FAABE70000F07F000000008D
:1040F000182D4454FB210940182D4454FB2109C0BC
:10410000182D4454FB21F9BF182D4454FB21F93FCD
:10411000527C0000000000000000000000000000D1
:10412000075C143326A6A13C70B504462DED028B26
:104130004D1E00EBC500B0EE408AF0EE608A90EDB7
:10414000000B35F0060017D053EC182B51EC100B78
:10415000FCF7DEF941EC100B6D1E04EBC50090ED91
:10416000001B51EC100B53EC112BFCF72AF941EC1E
:10417000100B35F00600E7D1022D36D0042D1CD0EF
:10418000062D1CBFBDEC028B70BD53EC182B51ECFF
:10419000100BFCF7BDF994ED0A1B53EC112BFCF747
:1041A00010F953EC182BFCF7B3F994ED081B53EC02
:1041B000112BFCF706F941EC100B53EC182B51ECCA
:1041C000100BFCF7A5F994ED061B53EC112BFCF733
:1041D000F8F853EC182BFCF79BF994ED040B53EC17
:1041E000102BFCF7EEF841EC100B53EC182B51ECB4
:1041F000100BFCF78DF994ED021B53EC112BFCF71F
:10420000E0F853EC182BFCF783F994ED001B53EC0A
:10421000112BFCF7D6F8BDEC028B41EC100B70BDF6
:1042200010B553EC102B51EC100BFCF7CAF841EC15
:10423000100B10BD10B553EC112B51EC100BFCF70B
:10424000C0F841EC100B10BD9FED050B10B553EC01
:10425000102B51EC100BFCF7CDF941EC100B10BDFD
:1042600000000000000000009FED050B10B553ECAE
:10427000102B51EC100BFCF74BF941EC100B10BD5F
:10428000000000000000001002E008C8121F08C172
:10429000002AFAD170477047002001E001C1121FC7
:1042A000002AFBD1704700000149086070470000F8
:1042B000182F00202DE9FF5FDDE90220010DDDF858
:1042C00038B0024318D044F61050A1F2FF314143F8
:1042D0000D140F98012820D0A5EB0B00401C5FEABD
:1042E000000A4FF00004474EDFF81C91A0465046EC
:1042F00016D5CAF1000728E00F98012443A201282F
:1043000008D0002100980F9BC0E90021C0E90243BA
:10431000BDE8FF9F6FEA0B01F4E7CBF10000DEE799
:10432000074612E0F80707D0224633464046494682
:10433000FCF7EEF880468946224633461046194679
:10434000FCF7E6F804460E467F10002FEAD1DDE9BF
:104350000201BAF1000F42464B4602DAFCF7D8F8E8
:1043600001E0FCF747F904460E460022284BFCF713
:10437000E3FA03D84FF0FF30014607E00022254B57
:1043800020463146FCF71DF8FCF7BEFA102409E080
:10439000002C0ADB0A220023FBF770FF019B30325E
:1043A0001A55641E50EA0102F2D1641C019AC4F14C
:1043B000110314440F9A012A03D0012208430DD19E
:1043C0000AE0084304D000204FF0110B0F9080E763
:1043D000A3EB0B056D1E0DE05B4504DD4FF0000205
:1043E00005F1010504E003DA4FF00002A5F1010533
:1043F000002AECD000980F99C0E90231C0E90045CD
:1044000086E70000000024400000F03F300000007C
:104410000000F0430000E03F2DE9F8431C46DDE9D1
:10442000085842EA01410346076A0A9E6A4600208C
:10443000B8470746009800280FD116B1B87A02286D
:104440000DD074B1787A00F011FE296888420BD93A
:10445000787A00F00BFE28601848BDE8F883184809
:10446000FBE74FF00060F8E7797A88F80010787A77
:1044700000F0FCFD064698F80000092806D03246F8
:104480002046F968FBF75CFF2E6014E0F8682A68A4
:10449000014602B93246024403E000BF04F8013B82
:1044A000401C03780BB19042F8D3411A2960B14205
:1044B00001D2002101700020CFE7000005000405B3
:1044C000010001067047704770477047704770479A
:1044D0007047704781690988002902D1012201F0E3
:1044E000F6BE70472DE9FF4F95B09B4689460646BC
:1044F00000250FE2252877D100242746F84A01211C
:10450000059400E0044316F8013F203B01FA03F054
:104510001042F7D130782A2811D06FF02F0330786D
:10452000A0F13002092A16D8059A44F0020402EBE1
:10453000820203EB42021044761C0590EFE759F823
:10454000042B0592002A03DA504244F400540590EB
:1045500044F00204761C30782E2816D116F8010F8C
:1045600044F004042A280DD06FF02F023078A0F117
:104570003003092B09D807EB870302EB4303C71865
:10458000761CF3E759F8047B761C30786C280FD042
:1045900006DC4C2817D068280DD06A2814D104E016
:1045A000742810D07A280FD10DE044F400140AE0EA
:1045B00044F4801401E044F440147278824202D141
:1045C00004F58014761C761C307866280BD013DC3A
:1045D000582877D009DC002875D04528F6D0462821
:1045E000F4D047281AD19DE118E0632835D064281B
:1045F00079D0652812D195E1702873D008DC67283E
:10460000F1D069286FD06E280DD06F2806D1B5E0A3
:1046100073282CD0752875D0782874D05A461799ED
:1046200090476D1C75E1C4F30250022809D003289D
:104630000DD0D9F8001004280DD00D6009F104093F
:1046400067E1D9F80010EA17C1E90052F6E7D9F896
:1046500000100D80F2E70D70F0E719F8041B8DF8DB
:10466000001000208DF80100EA46012003E059F80F
:1046700004AB4FF0FF3061074FF0000102D40DE0B2
:1046800008F101018846B9420FDA8045F8DB1AF8D3
:1046900008100029F4D108E008F1010188468142A0
:1046A000FADB1AF808100029F6D105985B46A0EB52
:1046B000080721463846179A00F094FA284400EB80
:1046C000080507E04DE029E10DE01AF8010B5A4614
:1046D00017999047B8F10108F7D25B462146384652
:1046E000179A13E142E00A220092C4F302524FF0FB
:1046F000000A022A08D059F804CB032A4FEAEC71C9
:104700000AD00DE029E02AE009F1070121F00702B3
:10471000F2E802C1914609E00FFA8CFC4FEAEC7115
:10472000042A03D14FFA8CFC4FEAEC71002907DA16
:104730000A460021DCF1000C61EB02012D2202E0AF
:10474000220504D52B228DF80420012203E0E20784
:1047500001D02022F7E7904659E00A2102E010221A
:104760000DE010214FF0000A00910BE010224FF0F5
:10477000000A44F004040827009203E008224FF0E6
:10478000000A0092C4F30252022A05D059F804CB61
:104790000021032A08D009E009F1070121F00702EE
:1047A000F2E802C1914605E01FFA8CFC042A01D10F
:1047B0000CF0FF0C4FF00008220728D5702806D017
:1047C000009B83F0100353EA0A0305D00EE0402259
:1047D0008DF80420012208E05CEA010206D03022B4
:1047E0008DF804208DF8050002229046009B83F08E
:1047F000080353EA0A030AD15CEA010201D1620705
:1048000005D530228DF804204FF001087F1E58286E
:1048100004D034A003900EA802900DE036A0F9E772
:1048200053466046009AFBF729FD84460398825C54
:104830000298401E029002705CEA0100F0D10298DA
:1048400006A9081A00F1200A600702D524F4803472
:1048500000E00127574502DDA7EB0A0000E0002039
:1048600000EB0A01009005984144401A0590E003CE
:1048700006D45B462146179A059800F0B3F9054423
:10488000002706E001A85A46C05D179990476D1CA5
:104890007F1C4745F6DBE0030CD55B462146179AA3
:1048A000059800F09FF9054404E030205A46179916
:1048B00090476D1C0099481E00900029F5DC08E027
:1048C000029802995A460078491C0291179990471C
:1048D0006D1CBAF10001AAF1010AF1DC65E10000EA
:1048E00009280100303132333435363738396162C6
:1048F000636465660000000030313233343536378A
:1049000038394142434445460000000000F058F960
:104910000544761C307800287FF4ECAD19B02846A9
:10492000BDE8F08F620700D4062709F1070222F0E4
:10493000070CFCE80223E14603F000485FEA080C9C
:1049400002D00FF2702C0DE05FEA045C02D50FF28A
:10495000682C07E05FEAC47C02D00FF2602C01E013
:10496000AFF2700C4FF0FF3823F00043CDF850C089
:1049700065280CD006DC452809D046281DD04728DC
:104980003DD13DE0662818D067287ED138E000216F
:10499000112F01DB112000E0781CCDE9000106A9F0
:1049A0000EA8FFF787FCDDE90F010E9A03910021A5
:1049B000009207F1010A04914DE04FF0004000978A
:1049C000CDE9011006A90EA8FFF774FCDDE90F027E
:1049D00003920E9B11990022DDF80CA00093049223
:1049E00011B9791C00EB010AB7EB0A0004D4C0F13D
:1049F000FF3007F1010A0490AAEB0700019044E0A0
:104A0000012F00DA01270021112F01DD112000E024
:104A10003846CDE9000106A90EA8FFF74BFCDDE9F9
:104A20000F010E9A0391002104910092BA462107CA
:104A30000CD40399514500DA8A46BAF1010F05DD1D
:104A4000009AAAF10101515C302908D0B84202DA7B
:104A500010F1040F06DA0121CDE9011015E0AAF1E9
:104A60000101E9E7002805DC049901440491AAEB5F
:104A7000000102E0411C514500DD8A460499401ABC
:104A8000401C01904FF000400290200704D4019890
:104A9000504501DBCDF8048000208DF84F000298CE
:104AA0000DF14F07B0F1004F25D02B200E9002984A
:104AB0004FF0020800280CDA404202902D200E90A0
:104AC00007E00A210298FBF744FE3031029007F814
:104AD000011DB8F10001A8F10108F2DC02980028DC
:104AE000EFD1791E0E980870307800F0200040F069
:104AF000450007F8020D12A8C01B00F10708149822
:104B0000007800B1012000EB0A01019801EBE0718F
:104B100005984144401A401E0590E00306D45B46C8
:104B20002146179A059800F05DF80544149800781E
:104B300018B15A46179990476D1CE00324D55B467F
:104B40002146179A059800F04DF805441CE004989A
:104B5000002807DBDDE90301884203DD0098405CA3
:104B6000179901E0179930205A469047049805F1AB
:104B70000105401C04900198401E019004D12E2094
:104B80005A46179990476D1CBAF10001AAF1010A23
:104B9000DDDC05E017F8010B5A46179990476D1CAC
:104BA000B8F10001A8F10108F4DC5B462146179A30
:104BB0000598ABE62D0000002B000000200000004F
:104BC0002DE9F041044600251E461746880404D40A
:104BD00005E039462020B0476D1C641EF9D52846F3
:104BE000BDE8F0812DE9F041044600251E469046BF
:104BF000C80301D5302700E02027880404D505E04C
:104C000041463846B0476D1C641EF9D52846BDE8BC
:104C1000F08100002DE9FF5F044690F86A07002547
:104C200003268B4600281BD0F706D4F820C039464F
:104C3000234603AA0020E047DFF83081404569D0D1
:104C4000AA46CDF800A0CDF804A0B946CDF808A03A
:104C500080E0032E07D0052E73D00B2E77D0FF20D7
:104C600004B0BDE8F09F4248266A40EA0541234669
:104C700003AA0020B047C068006800284FDB3C480A
:104C8000266A401C40EA0541234603AA0020B0479B
:104C9000C068BBF1000F20D00178D1B3F02922D831
:104CA000A26805EBC50112F811305B1CDBB202F8FB
:104CB00011300278934216D1A268204602F811A062
:104CC000CDF800A0CDF804A06A462946CDF808A08A
:104CD00000F0BAF818BB05263CE00078FF2827D082
:104CE000FE2825D01BE00078FC281AD105EBC5066C
:104CF0000621A06801EB460142182946204600F033
:104D0000A3F80028A06810F8161004D021F00101C3
:104D100003E008E028E041F0010100F816100B263E
:104D200018E00028FBD12946204604F02DFCF6E7C8
:104D3000A06805EBC50110F81100C007F1E700E01D
:104D400005E06A462946204604F0D4FCE7E76D1CDE
:104D5000EDB20326276A49EA0541234603AA00204B
:104D6000B84740457FF475AF002079E7AC6D00206F
:104D7000010000182DE9F84F9B468A46DDE90A65D7
:104D80009146804642EA0A410346046A6A46002088
:104D9000A04704460098002810D115B1A07A012838
:104DA0000BD0607A074600F061F90546306848B1DB
:104DB000A84207D0092F03D032E01B48BDE8F88F86
:104DC000A8422DD2D8F81C2059463846904700906A
:104DD0000028F3D132685946E068FBF7B1FA10B108
:104DE000092F02D007E01148E8E73068A84202D254
:104DF000E268002111543560636933B14A462146A7
:104E00004046984700900028D8D1A07A400705D5A1
:104E1000D8F8D03840464A46514698470020CDE75A
:104E200003483560CAE700000200010633000008AD
:104E3000100007067047704710B541EC100BFEF7E5
:104E40000FFF51EC100B10BD2DE9F04F06460F4639
:104E50004FF0C0508BB0924640EA0741346A334667
:104E600004AA0020A0474FF0D05040EA0741346A1E
:104E70008846334604AA0020A0470024D6F820C064
:104E800025464146334604AA2046E047D0F80CB0F8
:104E90003048D6F820C040EA0741334604AA002033
:104EA000E047C0680088AAF8000000208AF80200E5
:104EB0000020059004F10109069049EA074040F0FE
:104EC000D051346A334604AA0020A047C068016864
:104ED0004FEA114C11F0FF042ED0291908914029F6
:104EE0002AD8621E012101EBD202079200880DF13F
:104EF0001C08C0F307220391002009ABCDF8008005
:104F0000CDE9013005AB61463046FFF785FA18B1AF
:104F1000FF200BB0BDE8F08F0AEBD502121D009206
:104F2000002005F00701CDE90110002320461A46B4
:104F300005A9FBF72FFE089D9BF8000009F0FF0470
:104F4000A042B5D801206D1E00EBD5008AF8030001
:104F50000020DEE70100001830B40B8800F5805215
:104F6000DC090F2C3FD2DFE804F037083E1D1D1D81
:104F70001D1D1D1D1D29293E3000802B06D090F8D7
:104F80006727002A2FD030BC02F0F6B9D2F8881B70
:104F9000491CC2F8881B90F86817002923D030BC40
:104FA00003F0C8BFD2F88C3B5B1CC2F88C3B90F876
:104FB0006A27002A17D030BC02F0C4BA90F86627DE
:104FC000002A10D030BC02F029BC90F86927002AD2
:104FD00009D030BC02F02CBA82691288002A02D0B3
:104FE00030BC02F0DAB930BC70470000F0B50446BE
:104FF00089B00888009004F580550120C5F8280B79
:1050000088786F46002610B10220039000E00396D6
:105010000296C8780490002006AA03E00B181B79BA
:105020001354401CCB788342F8D808AB39460D485E
:10503000FCF700F8012804D00020C5F8286B09B05F
:10504000F0BDB4F824190848012902D0022904D07F
:1050500006E04168491C416002E00168491C0160AA
:10506000FF20ECE71C2F0020E82E00200146002046
:10507000062916D005DC0CD2DFE801F00B1515135C
:105080000A15322913D005DC072901D0082900D1DF
:1050900004207047482908D04929FAD105480068FA
:1050A000704702207047012070470348F7E70C2043
:1050B00070470000DC0E0020980E00200249486076
:1050C0000120088070470000A000002070B5044651
:1050D00005F05AFD01280CD0094D2888844203D3DD
:1050E000B4FBF0F005F0ECF82888B4FBF0F100FB1D
:1050F00011444FF47A706043BDE8704000F002B88C
:10510000A000002070B54FF0E02400226569094935
:10511000A36949684843A1699942FCD002D2A3EB34
:10512000010302E0A5EB010633441A440B46824218
:10513000F1D370BDA000002008B560B120208DF82B
:10514000000028208DF8010030208DF80200382062
:105150008DF8030004E0A32204216846FBF704F95C
:105160006A46042140F69E2001F0F2FF01F06EFC39
:1051700008BD00003EB5044602208DF80000CA209C
:105180008DF80100E3208DF8020009208DF803005E
:105190006A460421682001F0DBFFA3208DF800009F
:1051A000610609D5C0218DF80110C8218DF80210C3
:1051B000C2218DF8031005E08DF801008DF8020082
:1051C0008DF8030014F4C07F09D0C4218DF80410B9
:1051D000CC218DF80510C6218DF8061005E08DF85C
:1051E00004008DF805008DF806008DF808008DF894
:1051F00007008DF809006A460A2140F6A72001F051
:10520000A7FFA0074FF0D80503D020208DF800009D
:1052100001E08DF800506A46012140F6B62001F009
:1052200097FFA00601D5012000E0002000F08EF8D5
:1052300014F4C07F1ED0E0050AD5B2208DF800001E
:105240008B208DF80100B6208DF802009B2009E02C
:10525000B0208DF8000080208DF80100B4208DF87A
:10526000020090208DF803006A46042140F6A22037
:1052700001F06EFFE1074FF40B6022D0F8218DF8AA
:1052800000106A46012101F063FFFA21072000F0B7
:10529000CFFA072000F09AFA012000F0B7FA642054
:1052A00000F076FB4FF4FA7000F082FBC82125482D
:1052B00000F054FA282000F069FA0A2000F076FA8B
:1052C00005E08DF800506A46012101F041FFA0077A
:1052D00003D5D9208DF8000001E08DF800506A4612
:1052E000012140F23D7001F033FF600701D501203C
:1052F00000E0002000F048F8E00601D5012000E0C1
:105300000020FFF719FF104D44F00800688101F0FC
:105310009DFB0020A873600601D50620A87314F435
:10532000C07F02D0A87B801DA87314F0140F02D098
:10533000A87B1030A873A00702D0A87B001DA8731B
:1053400000203EBD09E3CA02EC6C00200EB54FF40C
:10535000976310B106A107C901E008A207CA8DE84A
:1053600007006A460921184601F0F2FE0EBD000052
:10537000B8AAB38DB4980D355D000000B8AAAAAAEA
:10538000B088C3C5C700000008B560B1C0208DF863
:105390000000C2208DF80100C4208DF80200C62054
:1053A0008DF8030004E08B2204216846FAF7DCFF45
:1053B0006A46042140F6982001F0CAFE01F046FB3F
:1053C00008BD0000C8234FF48062024940F6F63061
:1053D00001F01CBA38AF00082DE9FF4F89B017461D
:1053E000DDE9165200244D4E884681462C80A246A7
:1053F000B07B694601F0B6FA4FF0FF3B18B1584652
:105400000DB0BDE8F08F708910F0140F3ED00099F8
:1054100009BA21F0FF029DF803100A433A6001998E
:105420009DF8073009BA21F0FF0119437960029B0A
:105430009DF80B401BBA23F0FF032343BB60039C82
:10544000121424BA24F0FF0C9DF80F4009144CEA02
:10545000040C1024C7F80CC01B144FEA2C4712FB95
:1054600002F211FB012113FB03F217FB0722114487
:10547000A1F17061B1F1007F04D901F0E7FAA5F85C
:1054800000A0BCE7298841F4807129804206694662
:1054900011D50A19A41D13885BBAA8F800305388E7
:1054A0005BBAA8F80230928852BAA8F804202A8879
:1054B00042F008022A8010F4C07F11D00A19A41DFE
:1054C00013885BBAA9F8003053885BBAA9F8023098
:1054D000928852BAA9F804202A8842F070022A80E1
:1054E000800716D00C44E07800F0C00500F03F01C2
:1054F0006078C00706D0C80801F007013268491C6F
:1055000002B190476078000703D5716809B1A80916
:1055100088470C9800F0ECFE002071E7EC6C00204E
:1055200030B5044613A285B007CA8DE807004FF0D6
:10553000FF35C82C16D8C820B0FBF4F1491E080A64
:105540008DF80C008DF80D1003AA022140F21620F0
:1055500001F0FEFD30B96A460C2140F6C12001F091
:10556000F7FD10B1284605B030BD05488481002004
:10557000F9E70000FEF2ABC4AAF1DFDFBBAFDFDF6B
:10558000EC6C0020F8B53049098901F0030250F8AD
:1055900022404A0700D56442C1F3C1028B0650F88D
:1055A000222000D55242C1F3811350F82330C805A0
:1055B00000D55B42254984FB0140850045EA947093
:1055C00082FB0142A40F44EA820483FB0121950F70
:1055D00045EA8105010E8DF80010010C8DF80110CF
:1055E000010A8DF802108DF803006A4604214FF479
:1055F000747001F0ADFD4FF0FF3688B9200E8DF8C4
:105600000000200C8DF80100200A8DF802008DF8B2
:1056100003406A4604214FF4757001F099FD08B10A
:105620003046F8BD280E8DF80000280C8DF80100DA
:10563000280A8DF802008DF803506A4604214FF4C1
:10564000767001F085FDF8BDEC6C002009E3CA021C
:105650002DE9FF4104463CA004F0030300680290DA
:105660003AA0006803903AA006683AA0056802A82C
:10567000C15C8DF80010C4F3C101425C8DF80120BB
:10568000C4F38112805C8DF8020003A8C35C8DF81E
:105690000430415C8DF80510805C8DF806006A4688
:1056A000032140F2264001F053FD4FF0FF37E0BBED
:1056B00001AA032140F22A4001F04AFDA8BBCDE92E
:1056C000006560070BD59DF8000040F001008DF8E3
:1056D00000009DF8040040F001008DF80400A006D1
:1056E0000BD59DF8010040F001008DF801009DF8F8
:1056F000050040F001008DF80500E0050BD59DF890
:10570000020040F001008DF802009DF8060040F014
:1057100001008DF806006A4603214FF4886001F00D
:1057200017FD10B901AA032100E004E040F2314066
:1057300001F00EFD18B1384604B0BDE8F08106480E
:1057400004810020F8E700004CCD6C000CC92C004F
:105750003656760026466600EC6C00204FF47A72CE
:1057600090FBF2F008B54843010E8DF80010010CD3
:105770008DF80110010A8DF802108DF803006A46B9
:1057800004214FF4AE7001F0E3FC08BD0521B0FB2D
:10579000F1F008B5010A8DF800108DF801006A4695
:1057A00002214FF4AD7001F0D3FC08BD0521B0FB20
:1057B000F1F008B5010A8DF800108DF801006A4675
:1057C00002214FF4AC7001F0C3FC08BD08B5002104
:1057D0008DF80010C10702D030218DF8001081072C
:1057E00005D59DF8001041F00C018DF80010400720
:1057F00005D59DF8000040F003008DF800006A46D2
:1058000001214FF4A47001F0A3FC08BD08B560B1FC
:10581000042800D90420401E8DF800006A460121AA
:1058200040F24F1001F094FC08BD0120F3E70000A6
:1058300070B504462DED028B82B040074FF0FF3566
:105840007ED0B1F5C86F7BD800EE101AB8EE400AD2
:10585000DFED460A01A880EE208A00F0A1FE9DF847
:105860000400022806D0042810D0082835D01028BB
:1058700074D13EE09FED3E0A28EE000ABCEEC00A5D
:1058800010EE100A9FED3B0A82B20AE09FED3A0A41
:1058900028EE000ABCEEC00A10EE100A9FED370A8F
:1058A00082B228EE000A6E46BCEEC00A10EE100A64
:1058B00081B2100A8DF800008DF80120080A8DF8D9
:1058C00002008DF80310E00726D0324602214FF483
:1058D000EA7001F03DFC98BB17E09FED290A28EE25
:1058E000000ABCEEC00A10EE100A9FED260A82B232
:1058F000D7E79FED250A28EE000ABCEEC00A10EE9D
:10590000100A9FED220A82B2CBE7B21C02214FF4AB
:10591000927001F01DFC98B9A0070DD56A460221CE
:105920004FF4EC7001F014FC50B9B21C02214FF49A
:10593000947001F00DFC18B9600714D56A4600E0B8
:105940000CE002214FF4EE7001F002FC30B9B21C01
:1059500002214FF4967001F0FBFB20B1284602B003
:10596000BDEC028B70BD0020F9E700000000484349
:105970000000804600004046000000460000C04590
:105980000000804500004045000000450000C04484
:105990000521B0FBF1F008B5010A8DF800108DF873
:1059A00001006A4602214FF4EF7001F0D1FB08BDFF
:1059B0000521B0FBF1F008B5010A8DF800108DF853
:1059C00001006A4602214FF4ED7001F0C1FB08BDF1
:1059D00010B50446044A0549FDF7C1F9D4F8F0189A
:1059E0000020087010BD00003D2B000800000310CF
:1059F000704782B0CDE9000121F0004001909DED9B
:105A0000000B02B051EC100B704700002DE9FF476E
:105A10009946DDE90C8715460E46044602AB00F0B8
:105A2000FBF8D0BB012D04D19DF80810204603F0EF
:105A30005BFD022D31D19DF80800224600EB4001AC
:105A4000C1EB401004EB80002349B0F99200FBF752
:105A5000F1F89DF8081001EB4102C2EB411104EB93
:105A60008101A1F89200D4F8CC08416941F002010B
:105A700041619DF80810852001EB4102C2EB411104
:105A800004EB810181F826009DF8080000EB40013D
:105A9000C1EB401004EB8000C762CDE900874B46A4
:105AA00032462946204603F0A7FE18B1FF2004B075
:105AB000BDE8F087022D02D0012D02D009E0074891
:105AC00000E00748256A40EA0641234603AA002071
:105AD000A8470020EBE70000792D000803008012A2
