:020000040800F2
:10000000C04200205902000897200008A71B0008E2
:1000100095200008230900081126000800000000B0
:100020000000000000000000000000009D0100082A
:100030003109000800000000F1010008B9200008A3
:1000400073020008730200087302000873020008BC
:1000500073020008730200087302000873020008AC
:10006000730200087302000873020008730200089C
:10007000730200087302000873020008730200088C
:10008000730200087302000873020008730200087C
:1000900025090008730200087302000873020008B3
:1000A00073020008BD2100087302000873020008F3
:1000B000C9210008730200087302000873020008D7
:1000C000730200087302000873020008730200083C
:1000D000730200087302000873020008730200082C
:1000E000730200087302000873020008730200081C
:1000F000730200087302000873020008730200080C
:1001000073020008730200087302000873020008FB
:1001100073020008730200087302000873020008EB
:1001200073020008730200087302000873020008DB
:1001300073020008000000000000000073020008C5
:1001400073020008730200087302000873020008BB
:1001500073020008730200087302000873020008AB
:10016000730200087302000873020008730200089B
:100170007302000873020008000000000000000085
:100180007302000873020008DFF80CD000F066FB71
:100190000048004701390008C04200202B4B196875
:1001A0000868B0E8F04F80F30988BFF36F8F4FF015
:1001B000000080F3118870470000000006480068C6
:1001C000006880F3088862B661B6BFF34F8FBFF353
:1001D0006F8F00DF00BF00BF08ED00E0DFF80C000C
:1001E000016841F470010160704700BF88ED00E0D4
:1001F000EFF30980BFF36F8F144B1A681EF0100FD6
:1002000008BF20ED108A20E9F04F106008B44FF0CD
:10021000500080F31188BFF34F8FBFF36F8F04F04E
:100220005DFF4FF0000080F3118808BC1968086872
:10023000B0E8F04F1EF0100F08BFB0EC108A80F34A
:100240000988BFF36F8F704700BF00BF58000020C0
:10025000EFF30580704700000648804706480047D6
:10026000FEE7FEE7FEE7FEE7FEE7FEE7FEE7FEE766
:10027000FEE7FEE769210008890100082DE9F05F2B
:100280000546002092469B46884606468146402405
:100290001BE0284641464746224600F028FA5346CE
:1002A0005A46C01A914110D311461846224600F012
:1002B0000FFA2D1A67EB01084F4622460120002154
:1002C00000F006FA17EB00094E41201EA4F10104CC
:1002D000DFDC484631462A464346BDE8F09F40EA07
:1002E00001039B0703D009E008C9121F08C0042AB4
:1002F000FAD203E011F8013B00F8013B521EF9D29B
:100300007047D2B201E000F8012B491EFBD27047C2
:100310000022F6E710B513460A4604461946FFF7D1
:10032000F0FF204610BD30B504460020034600E033
:100330005B1C934203D2E05CCD5C401BF8D030BD27
:100340002DE9FE4F804681EA0300C00F0C46009065
:1003500021F0004123F00045B8EB0200A94105D28D
:100360004046214690461C460B46024623F000407C
:10037000104347D0270DC7F30A00C3F30A51029078
:10038000401A019040286BDAC3F3130040F4801B3D
:100390000098924620B10023D2EB030A63EB0B0BCB
:1003A00001985946C0F14002504600F091F90646C6
:1003B0000D4650465946019A00F0A9F910EB080085
:1003C0006141002487EA115284EAE7731A4340D05E
:1003D000009A62B3019A012A4FEA075215DC001B0A
:1003E00061EB02014FF0004202EA0752CDE9004200
:1003F000001C41F5801132462B4600F0E0F903B0B5
:10040000BDE8F08F40462146F9E7001B61EB020191
:10041000001C41F5801300185B412018A2F500175D
:1004200047EB030140EAD570B6196D4111E06D0844
:100430004FEA360645EAC0754FEA0752001B61EBEA
:100440000201001C41F5801149084FEA30000019F3
:10045000514132462B4603B0BDE8F04F00F0A0B941
:100460000098012240000023D0EB020263EBE0730E
:10047000009821464FEAE074B8EB000061EB0401FC
:10048000E9E783F000435BE781F0004158E72DE99D
:10049000FE4F81EA030404F0004421F0004100947F
:1004A0004FF0000B23F0004350EA01045ED052EA03
:1004B00003045BD0C3F30A54C1F30A552C44A4F2DD
:1004C000F3340194A0FB0254C1F3130141F48011F1
:1004D000C3F3130343F4801301FB024400FB034EF8
:1004E000840A970A44EA815447EA8357A4FB0768C1
:1004F00002958D0A05FB07854FEA932C04FB0C54EB
:100500002705029D4FEA065847EA1637B5EB08055E
:100510006EEB070C870E920E47EA811742EA8312B0
:10052000A7FB0201B6EB0B0164EB00042B0D43EAC1
:100530000C335E1844EB1C50DA465146E7FB0201CF
:10054000C5F313044FEA0B3343EA14534FEA043262
:10055000019C43EA0603A4F10C040294009CCDE93B
:1005600000B400F02CF903B0BDE8F08F0020014684
:10057000F9E72DE9F04D81EA030404F0004B21F086
:10058000004514464FF0000A23F0004150EA0502EE
:1005900020D054EA01021DD0C5F30A570246C5F324
:1005A0001303C1F31300C1F30A5640F4801543F45A
:1005B0008013A7EB0608101BD64608F2FD3873EB34
:1005C000050002D308F1010801E092185B41B8F17F
:1005D000000F03DA00200146BDE8F08D00204FF443
:1005E0008011064684460EE0171B73EB050705D302
:1005F000121B63EB050306434CEA010C49084FEA62
:10060000300092185B4150EA0107EDD152EA030035
:1006100012D082EA040083EA0501084305D0101BCA
:10062000AB4106D20122002306E000224FF0004336
:1006300002E06FF0010253101AEB06004CEB085178
:1006400010EB0A0041EB0B01BDE8F04D00F0A8B83B
:100650000EB5C10F80EAE0700844CA07002140F2DD
:1006600033438DE80E000A460B4600F0A8F803B0AD
:1006700000BD00F0004230F000400AD0C10D01F58D
:100680006071C0F3160042EA0151C20840071143ED
:10069000704700200146704701F0004330B421F05C
:1006A000004150EA010206D00A0DA2F56072C1F3C2
:1006B0001301002A02DC30BC00207047440F44EADA
:1006C000C104C100E01830BC00EBC25000F031B8EA
:1006D000202A04DB203A00FA02F100207047914002
:1006E000C2F1200320FA03F3194390407047202AF7
:1006F00004DB203A21FA02F00021704721FA02F3CC
:10070000D040C2F120029140084319467047202A88
:1007100006DBCB17203A41FA02F043EAE07306E029
:1007200041FA02F3D040C2F1200291400843194639
:1007300070470029A8BF7047401C490008BF20F03F
:100740000100704710B4B0FA80FC00FA0CF050EAD7
:10075000010404BF10BC704749B1CCF1200421FA58
:1007600004F411FA0CF118BF012121430843A3EB53
:100770000C01CB1D4FEA00614FEA102042BF002060
:1007800010BC704700EBC35010440029A4BF10BC3C
:100790007047401C490008BF20F0010010BC7047A2
:1007A00010B5141E73F1000408DA401C41F1000179
:1007B00092185B411A4301D120F0010010BD2DE9D0
:1007C000F04D92469B4611B1B1FA81F202E0B0FAC7
:1007D00080F220329046FFF77BFF04460F4640EA46
:1007E0000A0041EA0B0153465A46084313D011460A
:1007F00053EA010019D0C8F140025046FFF777FFD5
:1008000005460E46504659464246FFF761FF0843EB
:1008100005D0012004E020463946BDE8F08D0020D7
:10082000054346EAE0762C4337430A986305E40A19
:10083000A0EB08000022FD0A44EA47540A3002D522
:1008400000200146E9E7010510196941DDE9084585
:1008500000196941BDE8F04DA2E70000064C074DC4
:1008600006E0E06840F0010394E807009847103480
:10087000AC42F6D3FFF78CFC5067000870670008A5
:100880002DE9F04D00231A461B1A8A4103DB002094
:100890000146BDE8F08DC1F30A52C1F3130141F4E2
:1008A00080154FF0000BD10702D100186D41521E88
:1008B0000027044640F2FF11384601EB620A3E462B
:1008C0008046024600204FF48011FFF710FFC21946
:1008D0007141BB1846EB0100B4EB030C75EB000C47
:1008E00004D3E41A65EB000517460E46241908F1F7
:1008F00001006D4180463428E3DDF91946EB06001E
:10090000091BA84103D24FF0FF32134601E0002239
:1009100013461BEB070046EB0A51BDE8F04DFFF70D
:100920003FBFFEE7014800F09CB80000DC0000205B
:100930007047012003F060FEFBE7012003F05CFE3E
:10094000FBE700008CB008A80B9007A80A900025D0
:1009500006A81A4F6C460DF10E0B0DF10C0A0DF1A5
:100960000A090DF108080A26099009AB93E8070067
:1009700003F0A8F8F0B901F063FA00905A46514626
:10098000484601F044FA4246A11D201D01F026FA16
:1009900000230A226946386904F072FD95FBF6F0DF
:1009A00006FB105525B94FF48041054800F0F6FAD2
:1009B0006D1C2DB2012003F01FFED6E700000020C1
:1009C00000080240234C8EB000231A4605A9206976
:1009D00004F05CFC0128F7D1142209A96846FFF74E
:1009E0007EFC0DF1140C9CE80F0003F018F89DED4F
:1009F0000D0AF2EE040A20EE200ADFED170ABDEE22
:100A0000C00A10EE100A9DED0C0A01B220EE200A79
:100A1000DFED120ABDEEC00A10EE100A9DED0B0AC2
:100A200000B220EE200ABDEEC00A10EE102A12B26B
:100A30000092CDE90101DDF81E000390BDF822000F
:100A4000ADF81000DDE90601DDE9032304F065F9E6
:100A5000BAE70000000000200000C8420000C8C241
:100A600070472DE9F05F0546006800244669D0F81C
:100A700004908768D0F80CB0D0F810A0D0F8188097
:100A8000F10748D0F90714D001218160B80703D5D8
:100A9000284600F0A5F90CE0780702D54FF4006471
:100AA00007E0380702D54FF4805402E0284600F0F2
:100AB00096F9F80516D529684FF480708860B80556
:100AC00003D5284600F08EF90CE0780502D544F4F1
:100AD000005407E0380502D544F4804402E028467B
:100AE00000F07FF9F80316D529684FF4803088604C
:100AF000B80303D5284600F077F90CE0780302D557
:100B000044F4004407E0380302D544F4803402E0A2
:100B1000284600F068F9300707D55FEACB6004D5B6
:100B20002968102044F40074C86070074FF008076B
:100B300007D55FEA0B7004D52868C760284600F027
:100B400049F9B00706D52868C068800702D0284652
:100B500000F041F9700607D55FEACA6004D529683C
:100B6000102044F480640861B00607D55FEA0A707B
:100B700004D528680761284600F02EF9F00606D54E
:100B800028680069800702D0284600F026F9B003E3
:100B900008D55FEAC96005D5296810204860284655
:100BA00000F01CF9F00307D55FEA097004D5286846
:100BB0004760284600F019F9300446D55FEA4970CD
:100BC00040D5F00504D55FEAC87001D044F00104B7
:100BD000B00504D55FEA887001D544F002047005C1
:100BE00004D55FEA487001D544F00404300529D5E6
:100BF00018F0700F26D008F07000402815D006DCE1
:100C0000102809D020280AD0302816D10AE0502810
:100C10000ED0602811D10EE044F008040DE044F03D
:100C200010040AE044F0200407E044F0400404E02B
:100C300044F0800401E044F480742868816921F064
:100C400070018161296804204860002C05D0686A21
:100C5000204368622846FFF703FFBDE8F09F70B5A8
:100C6000040003D094F8200010B104E0012070BD0E
:100C7000204600F081F82068016821F0020101603F
:100C800000F096F90546052604E000F091F9401BB6
:100C90000A2811D8206840688007F6D420680168C7
:100CA00041F00101016000F083F905460BE000F01E
:100CB0007FF9401B0A2806D9606A40F40030606260
:100CC00084F82060D2E720684068C007EFD0207E1B
:100CD0000128206801683DD021F080010160607E1C
:100CE00001282068016838D021F040010160A07E11
:100CF00001282068016833D021F020010160E07EE6
:100D00000128206801682ED041F010010160207F89
:100D100001282068016829D021F008010160607F66
:100D200001282068016824D021F004010160D4E981
:100D300002010843D4E90412114308436168491EC3
:100D400008432168C86100206062012084F8200007
:100D5000002070BD41F08001C0E741F04001C5E7CF
:100D600041F02001CAE721F01001CFE741F008016E
:100D7000D4E741F00401D9E700B50068124987B013
:100D800088421FD111480021026842F000720260BF
:100D9000006800F0007005904FF4C05000900220F1
:100DA000CDE9010103200390092004906946084819
:100DB00000F01CF800220521142000F0A9F91420ED
:100DC00000F09AF907B000BD0064004040380240CE
:100DD0000000024070477047704770477047704787
:100DE0007047704770477047704770472DE9F84F5C
:100DF000DFF87CB100224FF001084FF0030A4FF0FA
:100E00000F090BF1040E00BF0B6808FA02F423402F
:100E1000A3426ED14D68022D01D0122D0ED1D508FE
:100E200000EB850CDCF820505607F70E09FA07F6A0
:100E3000B5430E69BE402E43CCF8206006685500CD
:100E40000F790AFA05FC07F0030726EA0C06AF4003
:100E5000374307604E68012E05D0022E03D0112EB5
:100E600001D0122E0ED18668CF6826EA0C06AF405C
:100E7000374387604668A6430C79C4F30014944056
:100E800034434460C6688C6826EA0C06AC403443A0
:100E9000C4604C68E40065D5364C256845F480454F
:100EA0002560246822F0030504F480440094324C49
:100EB0002E19D6F8084895072F0F09FA07F5AC4305
:100EC0002E4DA84201D1002524E02D4DA84201D18C
:100ED00001251FE02B4DA84201D102251AE02A4D21
:100EE000A84201D1032515E0284DA84202D10425CE
:100EF00010E037E0264DA84201D105250AE0254D36
:100F0000A84201D1062505E0234DA84201D10725BD
:100F100000E00825BD402543C6F80858DBF800402E
:100F20005D464E689C43F60300D51C432C60DEF8FA
:100F3000004075464E689C43B60300D51C432C60A8
:100F40000B4D08352C684E689C43F60200D51C43B7
:100F50002C60074D0C352C684E689C43B60200D5BA
:100F60001C432C60521C102AFFF44EAFBDE8F88FD2
:100F7000003C014044380240003001400000024083
:100F80000004024000080240000C02400010024031
:100F90000014024000180240001C024042694A400E
:100FA000426170470AB1816170470904FBE70000A4
:100FB00001488068704700002400002002488168D2
:100FC0000278114481607047240000200B4810B55E
:100FD000016841F400710160016841F480610160C1
:100FE000016841F480710160032000F0B1F8002035
:100FF00000F006F800F03EF8002010BD003C024072
:1010000010B5014688B00022192000F081F819209F
:1010100000F072F813480024016841F001010160FA
:10102000006805A900F001000690684600F03AF952
:1010300000F06EF90C494000B0FBF1F10C480B4A8E
:10104000491E026040F2E732C0E90324C0E90114FE
:1010500000F076FB10B1012008B010BD044800F08C
:10106000A7FBF9E74438024040420F00000001406E
:10107000800100201F4808B5016841F480410160EB
:10108000006800F4804000901A48001F016841F099
:1010900080510160006800F080500090032000F053
:1010A00057F8002211466FF00B0000F031F80022D3
:1010B00011466FF00A0000F02BF8002211466FF085
:1010C000090000F025F800221146501F00F020F81A
:1010D00000221146101F00F01BF800220F21901E65
:1010E00000F016F800220F21BDE80840501E00F065
:1010F0000FB800004438024000F01F020121914067
:101100004009800000F1E020C0F8001170470000A5
:10111000F0B40E4B1B680C46C3F30223C3F1070562
:10112000042D00D90425191D072901D2002300E050
:10113000DB1E012606FA05F1491E214099409E401A
:10114000761E16403143F0BC00F0A6BF0CED00E067
:10115000064900F0070208684FF6FF03184040EA0E
:101160000220034A10430860704700000CED00E0C5
:101170000000FA052DE9F0470E46050065D0DFF8BE
:101180001481D8F80000F7B200F00F00B04207D287
:1011900088F80070D8F8000000F00F00B04254D179
:1011A00028683D4C810712D5400703D5206840F4DC
:1011B000E05020602878000703D5206840F46040A4
:1011C00020602068A96820F0F0000843206028789B
:1011D000C0072DD0304968680839012812D002288C
:1011E00013D0032811D00968890700292DDA216856
:1011F00021F0030101432160FFF7DAFE814641F24D
:10120000883A0EE009688903EFE709688901ECE78D
:10121000FFF7CEFEA0EB0901514502D90320BDE83E
:10122000F0872068696800F00C00B0EB810FEFD107
:10123000D8F80010404601F00F01B14207D90770FD
:10124000006800F00F00B04201D00120E7E72878E5
:10125000400705D52068E96820F4E0500843206085
:101260002878000706D52068296920F4604040EA04
:10127000C100206000F05CF82168084AC1F3031146
:10128000515CC840064908600020FFF7B9FE002005
:10129000C5E70000003C024008380240C059000881
:1012A000300000200F2202600C4A136803F0030391
:1012B0004360136803F0F0038360136803F4E053A2
:1012C000C36012684FF4E05303EAD202026104489B
:1012D000006800F00F000860704700000838024006
:1012E000003C0240014800687047000030000020C8
:1012F0000448054900680968044AC1F38221515C29
:10130000C84070473000002008380240D05900081B
:101310000448054900680968044AC1F34231515C38
:10132000C84070473000002008380240D0590008FB
:10133000154810B5006810F00C02144813D0411085
:10134000042A0FD0082A0ED10F4C241F22682368CC
:1013500002F03F025B0207D52068C0F38810A0FBB3
:10136000010106E0084610BD2168C1F38811A1FB08
:1013700000010023FEF782FF2168C1F30141491CEF
:101380004900B0FBF1F010BD083802400024F40021
:101390002DE9F84F050076D02878DFF8F8B2BE4C7A
:1013A000C00749D0DBF800105846C1F3810101297C
:1013B00008D00068C0F3810002280AD1201D00680F
:1013C000400206D52068800336D568680028E2D040
:1013D00032E06868B0F5803F10D0B0F5A02F2068EB
:1013E00010D020F480302060206820F4802020601D
:1013F0006868A0B1FFF7DCFD06460CE0206840F409
:101400008030F4E740F480202060F7E7FFF7D0FD5C
:10141000801B642873D820688003F7D50CE0FFF7A1
:10142000C7FD064605E000BFFFF7C2FD801B64282C
:10143000F0D820688003F7D42878DFF8608280072E
:101440004FF000093ED5DBF80010584611F00C0FA4
:1014500009D00068C0F3810002280BD18D48001F1D
:101460000068400206D42068800715D5E868012886
:1014700009D111E0E868B8B10120C8F80000FFF711
:1014800097FD064605E002E1FFF792FD801B02286A
:10149000C0D820688007F7D52068296920F0F800B7
:1014A00040EAC10020600DE0C8F80090FFF780FD21
:1014B000064604E0FFF77CFD801B02281FD8206849
:1014C0008007F7D42878000722D5724E74486969DE
:1014D0006C3671B101210160FFF76AFD074604E037
:1014E000FFF766FDC01B022809D830688007F7D5D2
:1014F0000EE0C0F80090FFF75BFD074605E083E0D3
:10150000FFF756FDC01B02287ED830688007F7D44D
:101510002878400768D5DFF87CA100270AF1380A4F
:10152000DAF80000C0000BD4DAF8001041F0805166
:10153000CAF80010DAF80000012700F0805000908F
:10154000584E3068C00510D4306840F48070306068
:10155000FFF72EFD009005E0FFF72AFD0099401AE5
:10156000022851D83068C005F6D54A4EA8686836BA
:1015700001280FD00528306810D020F0010030601D
:10158000306820F004003060A868B8B1FFF710FDA3
:1015900000900FE0306840F00100F4E740F00400F4
:1015A0003060F7E7FFF704FD0099411A41F28830F7
:1015B000814264D830688007F4D50EE0FFF7F8FC6C
:1015C000009007E0FFF7F4FC0099411A41F28830DF
:1015D000814254D830688007F4D42FB1DAF8001073
:1015E00021F08051CAF80010A869C0B3DBF80010E0
:1015F000C1F3810102294AD00228484607D0C8F821
:101600006000FFF7D5FC00E039E005463AE04746C8
:10161000C8F86000FFF7CCFC064604E0FFF7C8FC02
:10162000801B02282BD820688001F7D4D5E9070158
:101630000843A96A1C4A490802EB01416A6A41EA67
:101640008211084395F82C1040EA01611148001FEF
:10165000016001203866FFF7ABFC054605E014E0A9
:10166000FFF7A6FC401B022809D820688001F7D5A7
:101670000BE000BFFFF79CFC401B022802D90320AF
:10168000BDE8F88F20688001F4D40020F8E701203D
:10169000F6E70000083802400038024000004742E8
:1016A000800E4742007000400000FFFF4FF0E02135
:1016B0000428086903D020F004000861704740F056
:1016C0000400FAE710B5401EB0F1807F01D301207D
:1016D00010BD4FF0E02460610F21601700F0DCFCCA
:1016E0000020A06107202061002010BD70477047D6
:1016F00030B590F83820012A20D0012280F8382017
:10170000022380F8393003685C6824F070045C6060
:1017100003685C680D682C435C6003689C6824F077
:1017200080049C6003689C6849680C439C6080F856
:101730003920002180F83810084630BD022030BD25
:1017400010B5040003D094F8390010B107E001206F
:1017500010BD002084F83800204600F00DF802206B
:1017600084F83900211D206800F034FD012084F840
:101770003900002010BD000008B50068B0F1804FAE
:1017800012D10A48016841F001010160006800229D
:1017900000F00100009006211C20FFF7B9FCBDE815
:1017A00008401C20FFF7A8BC08BD000040380240DC
:1017B0000168CA6842F00102CA600068016841F02D
:1017C000010101600020704770B5044690F83800B0
:1017D000012817D0012584F83850022084F83900F8
:1017E0002068826822F0770222F47F4282600868D3
:1017F000502837D00DDC202859D005DC88B31028BC
:1018000041D151E0022070BD302853D040283AD158
:101810003FE060282ED070280BD0B0F5805F03D059
:10182000B0F5005F2FD110E02068816821F007013A
:1018300015E0CB68D1E90121206800F02BFD21687B
:10184000886840F0770088601DE0CB68D1E901210D
:10185000206800F01FFD2068816841F480418160AC
:1018600011E01EE0CA684968206800F025FD50219B
:10187000206806E0CA684968206800F02EFD6021F3
:10188000206800F011FD84F83950002084F83800F9
:1018900070BDCA684968206800F00EFD40212068CC
:1018A000EFE700212068ECE710212068E9E720211C
:1018B0002068E6E730212068E3E7704770B504460A
:1018C000006801694FF00005C943890715D4C16854
:1018D000C943890711D4E91E0161012020762068DF
:1018E00080698007204602D0FFF7E7FF04E000F0A0
:1018F00098F8204600F096F8257620680169C943DB
:10190000490717D4C168C943490713D46FF00401CC
:101910000161022020762068806910F4407F204613
:1019200002D0FFF7CAFF04E000F07BF8204600F089
:1019300079F8257620680169C943090716D4C1687A
:10194000C943090712D46FF0080101610420207611
:101950002068C0698007204602D0FFF7AEFF04E090
:1019600000F05FF8204600F05DF8257620680169F8
:10197000C943C90617D4C168C943C90613D46FF057
:1019800010010161082020762068C06910F4407FB2
:10199000204602D0FFF791FF04E000F042F8204615
:1019A00000F040F8257620680169C943C90708D1CD
:1019B000C168C943C90704D1891E0161204600F0EE
:1019C00033F820680169C943090609D4C168C943CD
:1019D000090605D46FF0800101612046FFF786FEFD
:1019E00020680169C943490609D4C168C943490649
:1019F00005D46FF040010161204600F01FF8206817
:101A00000169C94389060BD4C168C943890607D453
:101A10006FF0200101612046BDE87040FFF767BE0E
:101A200070BD70477047000000680349884201D1CB
:101A3000FFF7C4BA7047000000000140704770B55E
:101A4000040004D094F83900002510B106E001200C
:101A500070BD84F83850204600F022F8242084F825
:101A600039002068C16821F40051C160204600F0AF
:101A700047FC2068016921F49041016120684169B7
:101A800021F02A0141612068C16841F40051C16020
:101A9000E563202084F8390084F83A00002070BD06
:101AA00000B500680E4987B0884217D10D4801681B
:101AB00041F0100101600068694600F010000590D7
:101AC0004FF4C0600090022001900120029003209A
:101AD0000390072004900448FFF788F907B000BD81
:101AE0000010014044380240000002402DE9F84354
:101AF000044690F839001F4616460D46202850D15E
:101B0000A5B19EB194F8380001284AD0012084F88C
:101B100038004FF00008C4F83C80212084F83900D8
:101B2000FFF746FAA6848146E68426E00120BDE858
:101B3000F883E08C401EE084A0684B46B0F5805FDF
:101B40004FF000024FF080012046009703D000F0D4
:101B50002DFDE8B90DE000F029FDC8B928882168FD
:101B6000C0F308004860206908B16D1C05E0AD1C99
:101B700003E0216815F8010B4860E08C0028D8D1FB
:101B80004B46002240212046009700F00FFD08B18F
:101B90000320CCE7202084F8390084F83880002026
:101BA000C5E70220C3E7FEE770B50D4C0025C4F879
:101BB000A8520C48016821F440010160016841F419
:101BC00080010160C4F8AC52022004F52A7401F0CF
:101BD00055FA01202060022001F050FA256070BD06
:101BE000008040420004024003480121C0F8A812CE
:101BF000C0F8AC12704700000080404270B50D4C38
:101C00000025C4F8A8520C48016821F44001016085
:101C1000016841F4800101600126C4F8AC62022031
:101C200004F52A7401F02AFA2660022001F026FA4F
:101C3000256070BD00804042000402402DE9F0475D
:101C4000814616480024016821F4400101600168C2
:101C50000160134E254627464FF00108C6F8A872CA
:101C6000022001F00BFAC6F8A8826006040ED6F82E
:101C70002C0208B1641CE4B2012001F0FFF96D1CD4
:101C8000EDB2082DEAD3B9F1000F04D0FFF78CFFB5
:101C90002046BDE8F087FFF7B1FFF9E700040240F6
:101CA000008040422DE9F04106461448016821F4C5
:101CB00040010160016841F480010160104C00277F
:101CC000C4F8A8723D464FF00108F009C4F8AC0210
:101CD0007006060E022001F0D1F9C4F8A882022095
:101CE00001F0CCF9C4F8A872022001F0C7F96D1C0C
:101CF000EDB2082DE9D3BDE8F081000000040240F8
:101D00000080404270B50D48016821F44001016037
:101D1000016841F480010160094C0120C4F8AC0263
:101D2000C4F8A802042004F52A7401F0A7F90025DC
:101D30006560042001F0A2F9256070BD0004024036
:101D4000008040420E4810B5016821F44001016056
:101D5000016841F4800101600A4C0020C4F8A80227
:101D6000C4F8AC02042004F52A7401F087F90120BC
:101D700020606060BDE81040042001F07FB90000E1
:101D8000000402400080404270B5124800240168FF
:101D900021F440010160016801600F4D0126C5F882
:101DA000AC62304601F06AF9C5F8A862012001F082
:101DB00065F907E0641CE4B2FA2C03D9FFF7C2FF0F
:101DC000012070BDD5F82C020028F3D1C5F8A80277
:101DD00070BD000000040240008040427CB5144603
:101DE0000D4606466B4606223B21682000F05AF855
:101DF00000280BD1BDF8001049BA3180BDF802109F
:101E000049BA2980BDF8041049BA21807CBD7CB54F
:101E100014460D4606466B4606224321682000F014
:101E200041F800280BD1BDF8001049BA3180BDF847
:101E3000021049BA2980BDF8041049BA21807CBD3E
:101E400008B56B4602224121682000F02BF8BDF84E
:101E5000000040BA00B2FEF7FBFB9FED0D1B53ECF8
:101E6000112BFEF786FB9FED0C1B53EC112BFEF79D
:101E700067FAFEF711FC00EE100ADFED090A20EE0A
:101E8000200ABDEEC00A10EE100A00B208BD000024
:101E90000000000000407540A4703D0AD743424056
:101EA0000000C8422DE9F0411D4614460F46064683
:101EB000FFF728FF7006000EFFF7F4FEFFF764FF40
:101EC00020B1FFF73FFF0120BDE8F0813846FFF762
:101ED000E9FEFFF759FFFFF715FF012000EB460071
:101EE000C0B2FFF7DFFEFFF74FFF09E0012C0DD076
:101EF0005FF00100FFF7A2FE641E05F8010BE4B2DB
:101F0000002CF3D1FFF71EFF0020DDE70020F1E7F2
:101F10002DE9F0411E4615460F460446FFF7F2FE36
:101F20006006000EFFF7BEFEFFF72EFF60B93846D1
:101F3000FFF7B8FEFFF728FF00240CE0305DFFF745
:101F4000B1FEFFF721FF20B1FFF7FCFE0120BDE845
:101F5000F081641CE4B2AC42F0D3FFF7F3FE002042
:101F6000F5E700000E4810B50C49016006214160FC
:101F700000214FF400228160C0E903124FF44012A7
:101F80004261017641768176C17601770121417700
:101F9000FEF765FE002800D0FEE710BD006400409B
:101FA000DC0000202DE9F041234886B04FF0000806
:101FB000016841F004010160016801F0040105912C
:101FC000016841F080010160016801F08001059124
:101FD000016841F002010160016801F00201059110
:101FE000016841F0010101600068144E00F0010039
:101FF0004FF440440590012221463046FEF7D2FFBF
:102000000F4F2511002229463846FEF7CBFF0094DA
:102010000124CDE90248694630460194FEF7E6FE08
:102020000320CDE90240CDE9005469463846FEF769
:10203000DDFE06B0BDE8F081303802400008024005
:102040000004024010B5124886B04FF08041016094
:1020500053210024C0E90114611EC0E90314FFF7F5
:102060006FFB00B1FEE74FF48050009069460848CE
:10207000FFF7AAFB00B1FEE7049404A90448059405
:10208000FFF736FB002800D0FEE706B010BD0000C9
:1020900004010020FEE770470907090E002806DA50
:1020A00000F00F0000F1E02080F8141D704700F1EF
:1020B000E02080F80014704710B502F0C0FABDE8C7
:1020C0001040FEF77BBF000030B5254893B00025D7
:1020D000016841F080510160006800F0805011906B
:1020E0002048016841F4804101600068022400F446
:1020F0008040119001200090000401908001CDE902
:102100000640082008904FF4A870CDE90904042087
:102110000B906846FFF73CF900B1FEE70CA90F20D1
:1021200081E831004FF4A0500F904FF48050109090
:1021300005210CA8FFF71EF800B1FEE7FFF7D2F863
:102140004FF47A71B0FBF1F0FFF7BCFA0420FFF70F
:10215000ADFA00220F21501EFEF7DAFF13B030BD9A
:1021600040380240007000401048016841F470019E
:1021700001600F48016841F0010101600C4A002133
:102180000832116002680B4B1A400260031D0A4AB4
:102190001A60026822F48022026005480C30016057
:1021A00002495806803908607047000088ED00E059
:1021B00000380240FFFFF6FE103000240148FFF710
:1021C0007DBB0000800100200148FFF777BB0000C5
:1021D00004010020F0B50268234B244D244E254F06
:1021E000254C4FF0804C984209D0604507D0A8425A
:1021F00005D0B04203D0B84201D0A04204D122F0B1
:10220000700E4A6842EA0E0298421BD0604519D00F
:10221000A84217D0B04215D0B84213D0A04211D076
:10222000164DA8420ED0164DA8420BD0154DA8420F
:1022300008D0154DA84205D0144DA84202D0144D27
:10224000A84203D122F44075CA682A4302608A6812
:10225000C2620A688262984201D0A04201D1096933
:10226000016301214161F0BD000001400004004014
:1022700000080040000C0040000401400040014004
:10228000004401400048014000180040001C00408C
:102290000020004010B5846842EA032224F47F4401
:1022A0000A432243826010BD826822F070020A4312
:1022B00042F007018160704710B5036A046A24F098
:1022C00001040462846924F0F00444EA021423F057
:1022D0000A020A438461026210BD10B5036A23F04A
:1022E000100303628369046A23F4704343EA0232F1
:1022F00024F0A00343EA01118261016210BD0000D5
:102300002DE9F04104460068016921F44052E1687A
:10231000114301612168C86849F20C629043236946
:10232000A268E5691A4363692B431A430243CA60F2
:102330002168486920F44072A06910434861E1694E
:102340006425B1F5004F9748974A21684FF032084D
:102350003FD0914201D081427CD1FEF7D9FF00EB02
:10236000C00101EB001061688900B0FBF1F6FEF7D7
:10237000CFFF00EBC00101EB001061688900B0FBEA
:10238000F1F0B0FBF5F06FF01801484306EB800167
:1023900008EB0110B0FBF5F000F0F006FEF7B8FF17
:1023A00000EBC00101EB001061688900B0FBF1F0A7
:1023B000B0FBF5F006EB0016FEF7AAFF00EBC0013C
:1023C00001EB001061688900B0FBF1F7FEF7A0FF98
:1023D000D2E0914201D081423DD1FEF799FF00EB5E
:1023E000C00101EB001061684900B0FBF1F0B0FBE7
:1023F000F5F00601FEF78CFF00EBC00101EB0010C9
:1024000061684900B0FBF1F7FEF782FF00EBC00105
:1024100001EB001061684900B0FBF1F0B0FBF5F092
:102420006FF01801484307EB800108EBC100B0FBD7
:10243000F5F000F0F80006EB4006FEF769FF00EB50
:10244000C00101EB001061684900B0FBF1F7FEF735
:102450005FFF3CE055E0FEF74BFF00EBC00101EBF6
:10246000001061684900B0FBF1F0B0FBF5F0060127
:10247000FEF73EFF00EBC00101EB00106168490070
:10248000B0FBF1F7FEF734FF00EBC00101EB0010E9
:1024900061684900B0FBF1F0B0FBF5F06FF0180196
:1024A000484307EB800108EBC100B0FBF5F000F0FA
:1024B000F80006EB4006FEF71BFF00EBC00101EB46
:1024C000001061684900B0FBF1F7FEF711FF00EB67
:1024D000C00101EB001061684900B0FBF1F0B0FBF6
:1024E000F5F06FF01801484307EB800108EBC100DD
:1024F000B0FBF5F000F00700216830448860BDE8CB
:10250000F081FEF7F5FE00EBC00101EB0010616801
:102510008900B0FBF1F6FEF7EBFE00EBC00101EB2A
:10252000001061688900B0FBF1F0B0FBF5F06FF0CE
:102530001801484306EB800108EB0110B0FBF5F0F1
:1025400000F0F006FEF7D4FE00EBC00101EB001036
:1025500061688900B0FBF1F0B0FBF5F006EB001606
:10256000FEF7C6FE00EBC00101EB001061688900B8
:10257000B0FBF1F7FEF7BCFE00EBC00101EB001071
:1025800061688900B0FBF1F0B0FBF5F06FF0180165
:10259000484307EB800108EB0110B0FBF5F000F0B9
:1025A0000F00A9E700140140001001402DE9F0419F
:1025B000984617460E460446069D1DE0681C1BD033
:1025C0002DB1FEF7F5FCA0EB0800A84214D9206855
:1025D000C16821F4D071C1602068416921F0010116
:1025E0004161202084F8390084F83A00002084F802
:1025F00038000320BDE8F0812068006836EA00005A
:1026000004D00020B842D9D00020F3E70120F9E738
:10261000FEE703B401984100009850EAC12018BFBA
:1026200004204A0D18BF40F0010040F2FF72B2EBE7
:10263000515F08BF40F00200012808BF052002B02A
:10264000704700000000000070B5C1482DED020B7E
:102650002DED0E8B82B0119D25F000449FEDBEDB69
:102660009FEDBFEB84423EDBA4F140511098A1F1F5
:102670007F6108430FD0BC48844202DC28D1109807
:1026800030B39DED100B02B0BDEC0E8B02B0BDE877
:10269000704000F069BC9DED100B53EC1D2B51EC0C
:1026A000100BFDF7F4FE9DED100B41EC180B53ECF5
:1026B0001E2B51EC100BFDF7EAFE53EC182BFDF727
:1026C0003FFE41EC100B02B0BDEC0E8B02B070BDB2
:1026D000012000F08DFC02B0BDEC0E8B02B0BDE815
:1026E000704000F055BCA1489FEDA18B844256DAA2
:1026F0009DED100BB4F1795F0ADA51EC100BFFF786
:1027000088FF042808BF00F053FC9DED100BDAE7AA
:1027100053EC102B51EC100BFDF7B9FE41EC190BEB
:1027200095480621B0EE490AF0EE690A784400F0B7
:102730009FFB53EC192B51EC100BFDF7A8FE41EC5D
:102740001A0B8E48B0EE490AF0EE690A042178446B
:1027500000F08EFB53EC192B51EC100BFDF797FE9C
:1027600053EC182BFDF7ECFD41EC100B51EC1A0B60
:1027700053EC102BFDF7FDFECDE900019DED000BA4
:1027800053EC102B9DED100B51EC100BFDF77FFE61
:102790009DED101B53EC112BFDF7D2FDD2E09DED0A
:1027A000100B51EC100B01F069F853EC182BFDF7EE
:1027B0006BFE9FED730BCDE9000153EC102B9DEDEB
:1027C000000B51EC100BFDF762FE41EC190B6E484B
:1027D0000621B0EE490AF0EE690A784400F048FBA1
:1027E00053EC192B51EC100BFDF751FE41EC1B0B78
:1027F0006648B0EE490AF0EE690A0421784400F018
:1028000037FB53EC192B51EC100BFDF740FE53EC4A
:10281000182BFDF795FD41EC1C0B51EC190B02F048
:1028200015FA41EC180B5A489FED5BABA04222DC35
:1028300053EC1C2B51EC1B0BFDF79BFECDE900016B
:102840009DED000B51EC180B53EC102BFDF71FFE08
:1028500053EC182BFDF774FD53EC1A2BFDF717FE04
:1028600053EC1D2BFDF70DFE53EC1E2BFDF70CFE5C
:1028700041EC100B5FE08DED008B002000909DED92
:10288000000B51EC180B53EC102BFDF759FD9DED8F
:10289000000B41EC1E0B53EC102B51EC100BFDF711
:1028A000F6FD53EC192BFDF7EFFD53EC1E2BFDF756
:1028B00060FE41EC190B53EC1C2B51EC1B0BFDF78C
:1028C00058FE41EC1B0B53EC1A2B51EC190BFDF786
:1028D000DEFD53EC1D2BFDF7D7FD41EC190B53EC3E
:1028E0001A2B51EC180BFDF7D2FD53EC1B2BFDF707
:1028F000CEFD53EC192BFDF7C4FD9DED000B41EC13
:10290000180B53EC1A2B51EC100BFDF7C0FD9FED8B
:10291000249B53EC192BFDF7B7FD41EC100B51EC48
:10292000180B53EC102BFDF7ACFD53EC192BFDF7F6
:10293000ABFD41EC100B002D3FF7C5AE51EC100B79
:1029400081F0004141EC100BBDE6000000000000EA
:102950000000F03F00000000075C143326A6913C05
:10296000182D4454FB21F93F0000F07F0000E03FA8
:10297000000000000000F03F003F00000E3F00009C
:10298000000000000000E03F523E0000603E0000FA
:102990003333EF3F00000000000000000000004063
:1029A000182D4454FB21E93F70B59B482DED020BD7
:1029B0002DED068B079D25F00044A04218DC9748BA
:1029C000844202DC0AD1069840B19DED060BBDECB5
:1029D000068B02B0BDE8704000F0C6BA002DCCBF37
:1029E0009FED8F0B9FED900BBDEC068B02B070BD81
:1029F0008F48A04215DD8F48A042D8BF4FF0FF346A
:102A000058DD9DED060B51EC100BFFF702FE04287C
:102A100008BF00F0CDFA9DED060BBDEC068B02B0B1
:102A200070BD9DED060B51EC100B00F027FFCDE9BA
:102A3000060181489FED828BA0423CDD8248A04286
:102A40001FDD00249FED82AB9DED060B53EC1A2B8E
:102A500051EC100BFDF774FC9DED060B41EC190BCE
:102A600053EC1A2B51EC100BFDF711FD53EC182B06
:102A7000FDF707FD53EC192BFDF77BFDCDE90601B2
:102A800049E09DED060B012453EC182B51EC100B83
:102A9000FDF756FC9DED060B41EC190B53EC182B82
:102AA00051EC100BFDF7EDFC53EC192BFDF761FD1C
:102AB000CDE906012FE06848A0421FDD02249FED0A
:102AC000689B9DED060B53EC192B51EC100BFDF799
:102AD000DEFC53EC182BFDF733FC9DED060B41ECAF
:102AE000180B53EC192B51EC100BFDF7CAFC53ECEF
:102AF000182BFDF73EFDCDE906010CE09DED060B20
:102B0000032453EC102B9FED580B51EC100BFDF7E9
:102B100030FDCDE906019DED060B53EC102B51EC79
:102B2000100BFDF7B4FC41EC180B53EC182BFDF720
:102B3000AEFC41EC190B4E480621B0EE490AF0EE0E
:102B4000690A784400F094F953EC182B51EC100BFF
:102B5000FDF79DFC41EC180B4648B0EE490AF0EE3B
:102B6000690A0521784400F083F953EC192B51ECE4
:102B7000100BFDF78CFC41EC100B51EC180B53ECD7
:102B8000102B002C0EDAFDF7DBFB9DED061B53EC42
:102B9000112BFDF77CFC9DED061B53EC112BFDF773
:102BA00073FC35E0FDF7CCFB9DED061B53EC112BC0
:102BB000FDF76DFC41EC100B2F48784400EBC4008E
:102BC00090ED001B51EC100B53EC112BFDF759FC51
:102BD0009DED061B53EC112BFDF753FC41EC100B44
:102BE0002648784400EBC40090ED001B51EC100B1C
:102BF00053EC112BFDF748FC41EC100B002DA2BF4C
:102C0000BDEC068B02B070BD51EC100B81F00041A1
:102C100041EC100B01E70000000010440000F07FC1
:102C2000182D4454FB21F93F182D4454FB21F9BFC2
:102C30000000DC3F0000203E0000F33F00000000E9
:102C4000000000000000F03F0000E63F0000000030
:102C50000000000000000040008003400000000071
:102C6000000000000000F83F000000000000F0BF7E
:102C7000A23B0000583B0000E23A00009A3A0000F4
:102C800070B56B4E2DED040B2DED028B82B0DDF88F
:102C90001CC0DDE905235C422CF000411C4341EAE5
:102CA000D474049D22F00040B44205D86C422C43F9
:102CB00040EAD474B4420BD99DED061B9DED040B84
:102CC00002B0BDEC028B04B0BDE8704000F056B914
:102CD000ACF14054A4F17F641C430BD0022404EAFD
:102CE000AC7444EAD27405439FED538B9FED542B93
:102CF00007D015E09DED040B51EC100B00F07EF9B0
:102D000042E0002C11BF012C9DED040B02B0BDEC84
:102D1000028B04BF04B070BD022C38D0032C3BD012
:102D20000B439FED491B9FED4A0B0AD0B14218D1CE
:102D3000B04209D121F0804120F0804007910590F8
:102D40000FE0002A15DA10E0434B7B44002C08BF4B
:102D500093ED000B0DD0012C10D0022C17D0032CBA
:102D60001AD0B0421DD1002A03DAB0EE410AF0EECB
:102D7000610A02B0BDEC028B04B070BD93ED000B94
:102D800051EC100B81F0004141EC100BF1E7B0EE7B
:102D9000480AF0EE680AECE7B0EE420AF0EE620A8A
:102DA000E7E7401A00153C28C8BF8DED000B19DC81
:102DB000BCF1000FBEBF10F13C0F9FED290B8DED54
:102DC000000B0FDB9DED060B53EC102B9DED040B60
:102DD00051EC100BFDF7CDFB00F050FD00F00EF9AB
:102DE000CDE90001002C08BF9DED000BC1D0012CE6
:102DF00010D0022C9FED1C0B53EC102B9DED000B03
:102E000051EC100B0DD0FDF73CFB53EC182BFDF7EC
:102E100038FBB9E7019880F0004001909DED000B70
:102E2000A7E7FDF72EFB53EC182BFDF72DFBABE7C7
:102E30000000F07F00000000182D4454FB210940E1
:102E4000182D4454FB2109C0182D4454FB21F9BF0F
:102E5000182D4454FB21F93FCA390000000000003E
:102E60000000000000000000075C143326A6A13C0F
:102E700070B504462DED028B4D1E00EBC500B0EE83
:102E8000408AF0EE608A90ED000B35F0060017D016
:102E900053EC182B51EC100BFDF7F9FA41EC100B29
:102EA0006D1E04EBC50090ED001B51EC100B53ECB4
:102EB000112BFDF745FA41EC100B35F00600E7D178
:102EC000022D36D0042D1CD0062D1CBFBDEC028B6C
:102ED00070BD53EC182B51EC100BFDF7D8FA94EDA4
:102EE0000A1B53EC112BFDF72BFA53EC182BFDF7B3
:102EF000CEFA94ED081B53EC112BFDF721FA41ECAF
:102F0000100B53EC182B51EC100BFDF7C0FA94ED9D
:102F1000061B53EC112BFDF713FA53EC182BFDF79E
:102F2000B6FA94ED040B53EC102BFDF709FA41ECC3
:102F3000100B53EC182B51EC100BFDF7A8FA94ED85
:102F4000021B53EC112BFDF7FBF953EC182BFDF78B
:102F50009EFA94ED001B53EC112BFDF7F1F9BDEC3B
:102F6000028B41EC100B70BD10B553EC102B51ECE3
:102F7000100BFDF7E5F941EC100B10BD10B553EC4B
:102F8000112B51EC100BFDF7DBF941EC100B10BDD0
:102F90009FED050B10B553EC102B51EC100BFDF70A
:102FA000E8FA41EC100B10BD00000000000000002A
:102FB0009FED050B10B553EC102B51EC100BFDF7EA
:102FC00066FA41EC100B10BD00000000000000107C
:102FD00002E008C8121F08C1002AFAD170477047E2
:102FE000002001E001C1121F002AFBD17047000040
:102FF0000149086070470000D800002010B541EC7E
:10300000100BFFF7D1FC51EC100B10BD10B50446AE
:103010000420FEF74BFB0A484FF47A7114FB01F1D0
:103020000122446002804FF0E020026942F0020277
:1030300002614161016941F00101016110BD0000BF
:103040009400002070B5044602F02CFB01280CD03F
:10305000094D2888844203D3B4FBF0F001F06AFFE5
:103060002888B4FBF0F100FB11444FF47A70604300
:10307000BDE8704000F002B89400002070B54FF039
:10308000E024002265690949A36949684843A169A8
:103090009942FCD002D2A3EB010302E0A5EB0106AA
:1030A00033441A440B468242F1D370BD9400002091
:1030B00008B560B120208DF8000028208DF80100AF
:1030C00030208DF8020038208DF8030004E0A322A0
:1030D00004216846FDF715F96A46042140F69E2052
:1030E00001F060FA00F096FF08BD00003EB504460E
:1030F00002208DF80000CA208DF80100E3208DF831
:10310000020009208DF803006A460421682001F0BE
:1031100049FAA3208DF80000610609D5C0218DF879
:103120000110C8218DF80210C2218DF8031005E0AE
:103130008DF801008DF802008DF8030014F4C07FB3
:1031400009D0C4218DF80410CC218DF80510C621BA
:103150008DF8061005E08DF804008DF805008DF857
:1031600006008DF808008DF807008DF809006A4602
:103170000A2140F6A72001F015FAA0074FF0D80564
:1031800003D020208DF8000001E08DF800506A4641
:10319000012140F6B62001F005FAA00601D5012074
:1031A00000E0002000F08EF814F4C07F1ED0E0058F
:1031B0000AD5B2208DF800008B208DF80100B620D2
:1031C0008DF802009B2009E0B0208DF800008020DF
:1031D0008DF80100B4208DF8020090208DF80300D6
:1031E0006A46042140F6A22001F0DCF9E1074FF421
:1031F0000B6022D0F8218DF800106A46012101F001
:10320000D1F9FA21072000F069FA072000F034FA1A
:10321000012000F051FA642000F010FB4FF4FA7026
:1032200000F01CFBC821254800F0EEF9282000F032
:1032300003FA0A2000F010FA05E08DF800506A4603
:10324000012101F0AFF9A00703D5D9208DF80000C6
:1032500001E08DF800506A46012140F23D7001F016
:10326000A1F9600701D5012000E0002000F048F836
:10327000E00601D5012000E00020FFF719FF104D06
:1032800044F00800688100F0C5FE0020A8736006C5
:1032900001D50620A87314F4C07F02D0A87B801D3E
:1032A000A87314F0140F02D0A87B1030A873A007E5
:1032B00002D0A87B001DA87300203EBD09E3CA020E
:1032C000AC3E00200EB54FF4976310B106A107C9BC
:1032D00001E008A207CA8DE807006A4609211846DE
:1032E00001F060F90EBD0000B8AAB38DB4980D3599
:1032F0005D000000B8AAAAAAB088C3C5C700000034
:1033000008B560B1C0208DF80000C2208DF8010022
:10331000C4208DF80200C6208DF8030004E08B2243
:1033200004216846FCF7EDFF6A46042140F6982028
:1033300001F038F900F06EFE08BD0000C8234FF41C
:103340008062024940F6F63000F044BD345A00086D
:103350002DE9FF4F89B01746DDE9165200244D4E86
:10336000884681462C80A246B07B694600F0DEFD8F
:103370004FF0FF3B18B158460DB0BDE8F08F708993
:1033800010F0140F3ED0009909BA21F0FF029DF809
:1033900003100A433A6001999DF8073009BA21F0F9
:1033A000FF0119437960029B9DF80B401BBA23F083
:1033B000FF032343BB60039C121424BA24F0FF0CC8
:1033C0009DF80F4009144CEA040C1024C7F80CC0F7
:1033D0001B144FEA2C4712FB02F211FB012113FBD5
:1033E00003F217FB07221144A1F17061B1F1007FD4
:1033F00004D900F00FFEA5F800A0BCE7298841F42D
:10340000807129804206694611D50A19A41D1388C6
:103410005BBAA8F8003053885BBAA8F802309288EB
:1034200052BAA8F804202A8842F008022A8010F430
:10343000C07F11D00A19A41D13885BBAA9F8003007
:1034400053885BBAA9F80230928852BAA9F80420CE
:103450002A8842F070022A80800716D00C44E07857
:1034600000F0C00500F03F016078C00706D0C80832
:1034700001F007013268491C02B1904760780007EB
:1034800003D5716809B1A80988470C9800F0C6FAFD
:10349000002071E7AC3E002030B5044613A285B091
:1034A00007CA8DE807004FF0FF35C82C16D8C82092
:1034B000B0FBF4F1491E080A8DF80C008DF80D10D0
:1034C00003AA022140F2162001F06CF830B96A46D6
:1034D0000C2140F6C12001F065F810B1284605B076
:1034E00030BD054884810020F9E70000FEF2ABC43E
:1034F000AAF1DFDFBBAFDFDFAC3E00202DE9FF41EB
:1035000004463CA004F00303006802903AA000685F
:1035100003903AA006683AA0056802A8C15C8DF83D
:103520000010C4F3C101425C8DF80120C4F3811284
:10353000805C8DF8020003A8C35C8DF80430415C08
:103540008DF80510805C8DF806006A46032140F274
:10355000264001F027F84FF0FF37E0BB01AA032116
:1035600040F22A4001F01EF8A8BBCDE900656007D3
:103570000BD59DF8000040F001008DF800009DF88B
:10358000040040F001008DF80400A0060BD59DF862
:10359000010040F001008DF801009DF8050040F0A9
:1035A00001008DF80500E0050BD59DF8020040F004
:1035B00001008DF802009DF8060040F001008DF832
:1035C00006006A4603214FF4886000F0EBFF10B953
:1035D00001AA032100E004E040F2314000F0E2FFE4
:1035E00018B1384604B0BDE8F081064804810020D7
:1035F000F8E700004CCD6C000CC92C003656760064
:1036000026466600AC3E00204FF47A7290FBF2F042
:1036100008B54843010E8DF80010010C8DF801101B
:10362000010A8DF802108DF803006A4604214FF458
:10363000AE7000F0B7FF08BD0521B0FBF1F008B592
:10364000010A8DF800108DF801006A4602214FF43E
:10365000AD7000F0A7FF08BD0521B0FBF1F008B583
:10366000010A8DF800108DF801006A4602214FF41E
:10367000AC7000F097FF08BD08B500218DF8001070
:10368000C10702D030218DF80010810705D59DF8C3
:10369000001041F00C018DF80010400705D59DF891
:1036A000000040F003008DF800006A4601214FF44D
:1036B000A47000F077FF08BD08B560B1042800D9F8
:1036C0000420401E8DF800006A46012140F24F1090
:1036D00000F068FF08BD0120F3E7000070B5044664
:1036E0002DED028B82B040074FF0FF357ED0B1F553
:1036F000C86F7BD800EE101AB8EE400ADFED460A1C
:1037000001A880EE208A00F0DDFA9DF8040002286E
:1037100006D0042810D0082835D0102874D13EE0F7
:103720009FED3E0A28EE000ABCEEC00A10EE100A19
:103730009FED3B0A82B20AE09FED3A0A28EE000AAA
:10374000BCEEC00A10EE100A9FED370A82B228EED6
:10375000000A6E46BCEEC00A10EE100A81B2100AD2
:103760008DF800008DF80120080A8DF802008DF810
:103770000310E00726D0324602214FF4EA7000F031
:1037800011FF98BB17E09FED290A28EE000ABCEE56
:10379000C00A10EE100A9FED260A82B2D7E79FED0D
:1037A000250A28EE000ABCEEC00A10EE100A9FEDB2
:1037B000220A82B2CBE7B21C02214FF4927000F0D1
:1037C000F1FE98B9A0070DD56A4602214FF4EC70BE
:1037D00000F0E8FE50B9B21C02214FF4947000F0E2
:1037E000E1FE18B9600714D56A4600E00CE002213A
:1037F0004FF4EE7000F0D6FE30B9B21C02214FF447
:10380000967000F0CFFE20B1284602B0BDEC028BCE
:1038100070BD0020F9E7000000004843000080462A
:1038200000004046000000460000C0450000804502
:1038300000004045000000450000C0440521B0FBE9
:10384000F1F008B5010A8DF800108DF801006A4604
:1038500002214FF4EF7000F0A5FE08BD0521B0FB7A
:10386000F1F008B5010A8DF800108DF801006A46E4
:1038700002214FF4ED7000F095FE08BD82B0CDE955
:10388000000121F0004001909DED000B02B051ECD1
:10389000100B704700B5024600F00DF80346D01C2F
:1038A00000F009F843EAC003901D00F004F843EA71
:1038B000801080B200BD90F90010002902DD4FF0A9
:1038C0000000704702DA4FF00400704790F90110D1
:1038D000002902DD4FF00100704702DA4FF00500C9
:1038E000704790F90200002802DD4FF00200704797
:1038F00002DA4FF0060070474FF0070070470000F3
:103900009CB0FDF763FBFEF7DFFBA820FFF77EFB13
:103910004FF4FA70FFF796FBFEF744FBFEF722FB2D
:10392000FEF790FB36483549002401603549C0E96F
:1039300001140C21C460C0E904418461C461FEF734
:103940007EF800B1FEE700F06FF901211AA81A9481
:1039500000F062FE2C4D0121E8611BA81B9400F0D1
:103960005BFE2862142229496846FCF7B8FC002156
:10397000684600F06EFE254928601422143105A81F
:10398000FCF7ADFC002105A800F063FE1F4968604C
:10399000142228310AA8FCF7A2FC00210AA800F092
:1039A00058FE1A49A86014223C310FA8FCF797FC76
:1039B00000210FA800F04DFE144CE860183CD4E93B
:1039C0000001CDE91401002114A800F021FE2861B6
:1039D000D4E90201CDE91601002116A800F018FE75
:1039E0006861D4E90401CDE91801002118A800F0AC
:1039F0000FFEA86100F007FEFEE700000010014086
:103A00004001002020A1070000000020705900089C
:103A100001460020842900D0C81C704770470EB5AD
:103A2000080A8DF800008DF801100814010A8DF8BD
:103A300002108DF80300100A8DF8040010148DF8A0
:103A40000520010A8DF806108DF80700180A8DF878
:103A5000080018148DF80930010A8DF80A108DF845
:103A60000B000C226946A12001F027F90EBD0000D1
:103A70002DE9F041124C20F00101002594F82400BA
:103A800010B10020BDE8F081A07A4FF0FF3668B198
:103A90000840277C2074884200D0354641B101207F
:103AA00001F0A8F800F0B6FA38B127743046E9E71B
:103AB000207D00B1012001F09DF82846E2E70000DA
:103AC000A000002070B50D462DED0C8B8EB0064683
:103AD0000CA902A81446F7EE00BACDE900010BAB21
:103AE00003AA09A907A8FFF733FC20B101200EB0F3
:103AF000BDEC0C8B70BDBDF80800C0057ED59DEDFA
:103B0000030AF8EEC00A9FED450AB0EE00CA60EE67
:103B1000809ADDED040AF8EEE00A69EE8CCA20EE28
:103B2000808ADDED050AF8EEE00A60EE808ADDEDC0
:103B3000060AF8EEE00A20EE809AB8EE000A28EEB7
:103B400000BA2BEE090A0CEEA80A10EE100AFCF7D8
:103B500090FD41EC100BFEF777FD9FED31AB51EC82
:103B6000100B53EC1A2BFCF792FCFCF795FD2BEE97
:103B7000080A28EE8CDA30600DEE680A30EE2B0A67
:103B800010EE100AFCF775FD2DEE090A41EC1B0B37
:103B90000CEE880A10EE100AFCF76BFD41EC100BDE
:103BA000B0EE4B1AF0EE6B1AFFF76AF853EC1A2BD3
:103BB00051EC100BFCF76BFCFCF76EFD29EEA90A2B
:103BC000286008EE080A08EEE80A09EE490A10EE35
:103BD000100AFCF74EFD28EE280A41EC1B0B09EEFB
:103BE000890A20EE0C0A10EE100AFCF742FD41ECA7
:103BF000100BB0EE4B1AF0EE6B1A00E00CE0FFF782
:103C00003FF853EC1A2B51EC100BFCF740FCFCF77F
:103C100043FD206000206AE7022068E70000803052
:103C20006666666666A64C4010B5FDF7DDFF00F0DF
:103C300067F888BB782000F059FC10F0FF0F01D026
:103C4000012010BD7820FFF713FF10F0FF0F01D007
:103C5000022010BD642000F009FC10F0FF0F01D01D
:103C6000032010BDFFF76AFB10F0FF0F01D0042006
:103C700010BD1348FFF70EFEFFF740FC10F0FF0FDA
:103C800001D0052010BD40F27310FFF72FFA10F09D
:103C9000FF0F02D0062010BD0FE06420FFF7FCFBF1
:103CA00010F0FF0F01D00720F5E7012000F004FB22
:103CB00010F0FF0F01D00920EDE70020EBE7000036
:103CC000CC0000200D494A7A42B1012A08D0022ACC
:103CD0000FD0032A0FD04FF0FF307047022200E0D0
:103CE00004220270C97C11B11106C90D01700020B7
:103CF00070470822F5E71022F3E70000A00000203B
:103D00007CB5334C80208DF8000020686B46012282
:103D1000417D60680078FEF7FBF84FF0FF36002821
:103D20004FD16420FFF78EF900258DF800502068F0
:103D30006B460122417D60680078FEF7E9F8E0BB40
:103D4000E57448208DF8000020686B460122017A56
:103D500060680078FEF7DCF878BBFF20A07204F8FA
:103D6000080F310C6070E070E1802072A0720120B9
:103D70002071A0761648E5766573001F257340F81C
:103D80001A5F4560856025776577E5834FF4FA60B3
:103D900000F0CEFA88B9022000F0ECF968B92A20C8
:103DA00000F02EFB48B9322000F060FB28B900205B
:103DB000FFF75EFE08B9002000E002E000F00EFA16
:103DC00008B130467CBD002000F090FB00207CBD97
:103DD000A00000202DE9FF4FDFF89480064685B053
:103DE00098F8250015460F464FF0FF39B0BBAFB32A
:103DF000002420E0301B102800DD102080B2834614
:103E00003A1901469246204600F0CCFB30BB6A4688
:103E10005946204600F0D4F800BB50465A46694641
:103E2000FCF781FA20B16FF0010009B0BDE8F08F16
:103E300004EB0B0084B2B442DCD3280A8DF81000E6
:103E40008DF81150D8F80000444604AB417FD8F8F3
:103E5000040002220078FEF75BF808B14846E4E768
:103E6000012084F825000898E0840020DDE70000A8
:103E7000A00000202DE9F84305464FF0FF38282820
:103E800045D80727284C002655B1012000F086FAB6
:103E9000012D17D0022D17D0052D17D804201CE0B6
:103EA000002000F07BFA8DF800608DF8017020682A
:103EB0006B460222417D60680078FEF729F830BB2E
:103EC00026752FE0022008E0032006E00A2D01D825
:103ED000052002E0142D03D806208DF8000001E033
:103EE0008DF8007020686B460122417A6068007886
:103EF000FEF70EF858B920208DF8000020686B46B8
:103F00000122417D60680078FEF702F810B140465A
:103F1000BDE8F8830820A0722673012020750020D8
:103F2000FFF7A6FD0020F3E7A00000202DE9F843ED
:103F3000224C0646174694F8240089464FF0FF3875
:103F4000A0B3A07A90B320686B460222017B606820
:103F50000078FDF7A7FF48BBBDF8000045BA201F59
:103F6000B542056002D2002038701FE060684188C9
:103F7000B5EB510F11D9216800786B46C97C01223D
:103F8000FDF790FF90B99DF80000C00605D500F040
:103F900041F86FF00100BDE8F8832068F2B24B46AB
:103FA000417B60680078FDF77DFF08B14046F2E78D
:103FB000B5FBF6F0401E38700020ECE7A0000020B2
:103FC000F8B516000D464FF0FF371FD0104CA17A00
:103FD000E1B1010A8DF80010C0B28DF8010041195D
:103FE00060684289914211D8216800786B46C97E89
:103FF0000222FDF78DFF48B92068EAB23346017E00
:1040000060680078FDF74EFF002800D03846F8BD04
:10401000A0000020F8B5564C4FF0FF36A07A0028DB
:104020007DD000258DF8005020686B460122417C30
:1040300060680078FDF76CFF002870D120686B463F
:104040000122417960680078FDF762FF002866D19F
:1040500020686B460122017960680078FDF758FFFF
:1040600000285CD194F82400E0B30C208DF8000007
:1040700020686B460122017960680078FDF748FFEF
:10408000002872D13220FEF7DDFFC0208DF800003D
:10409000A07AC00702D0E0208DF8000020686B46AF
:1040A0000122017960680078FDF732FF00285CD1B9
:1040B000607C18B102208DF8000001E08DF80050FE
:1040C00020686B460122417C60680078FDF720FF84
:1040D00028BB8DF8005020686B460122417960684A
:1040E00000783EE0FFE704208DF8000020686B4672
:1040F0000122017960680078FDF70AFF78B9A07C99
:1041000090B9A07AC0070FD05FF060008DF8000072
:1041100020686B46012201796068007800E024E0A5
:10412000FDF7F6FE08BB01E04020EFE73220FEF786
:1041300089FF607C18B101208DF8000001E08DF846
:10414000005020686B460122417C60680078FDF7D2
:10415000DFFE50B92068064B0122417960681033B8
:104160000078FDF7D5FE002800D03046F8BD0000ED
:10417000A000002038B5184C4FF0FF35A17A19B3D4
:10418000022806D0042806D008280ED010281BD1FB
:104190000DE0002000E008208DF80000607A9DF816
:1041A0000010B0EBD10F04D005E01020F4E7182088
:1041B000F2E7002038BD20686B460122C1796068B3
:1041C0000078FDF7A5FE08B1284638BD9DF800002F
:1041D000C0086072EDE70000A0000020F8B5354C83
:1041E0000546A07CA84201D10020F8BD31484FF01F
:1041F000FF366B46D0E900104FF0010209790078D4
:1042000035B3FDF74FFE70BB9DF800006B4620F004
:1042100020008DF800002068012201796068007894
:10422000FDF776FEF8B90320FEF70CFF02208DF8AB
:10423000000094F8220078B382202BE020686B46BF
:104240000122C17D60680078FDF762FE58B92EE05A
:10425000FDF728FE38B9A07AC0079DF8000003D00A
:1042600040F0200002E00CE020F020008DF800007B
:1042700020686B460122017960680078FDF748FEEE
:1042800008B13046F8BD0320FEF7DCFE94F82200AA
:1042900000B180208DF8000094F823000028CDD0D4
:1042A0009DF8000040F030008DF80000C6E7A574CE
:1042B0009AE70000A000002038B51C4C94F82410A8
:1042C00081421DD0002500B394F82500D0B1002014
:1042D00000F090FC0020FFF781FFE08C00F0C6F8B2
:1042E0008DF8005060686B46012200782321FDF7AD
:1042F0000FFE012084F8240000F07CFCFFF78AFE0A
:10430000002038BD4FF0FF3038BD002000F072FCB7
:10431000207C8DF8000060686B4601220078232124
:10432000FDF7F6FD84F82450E8E70000A000002027
:1043300038B5194C4FF0FF35A17A31B3FA2809D0BE
:10434000B0F5FA7F08D0B0F57A7F0FD0B0F5FA6FEC
:104350001BD10DE0002000E008208DF80000207A3D
:104360009DF80010B0EBD10F04D005E01020F4E769
:104370001820F2E7002038BD20686B4601228179C1
:1043800060680078FDF7C4FD08B1284638BD9DF887
:104390000000C0082072EDE7A000002038B5174CDF
:1043A000054694F82300A84201D1002038BD0DB184
:1043B000302000E000208DF80000A07C28B19DF89E
:1043C000000040F002008DF8000094F8220028B1AF
:1043D0009DF8000040F080008DF8000020686B46DA
:1043E0000122C17D60680078FDF792FD10B14FF0A9
:1043F000FF3038BD84F82350D7E70000A00000202C
:1044000038B5194C4FF0FF35A17A31B3BC2801D330
:10441000012010E0622801D302200CE02A2801D3F9
:10442000032008E0142801D3042004E00A2801D363
:10443000052000E006208DF80000E07A9DF80010CD
:10444000884201D1002038BD20686B460122817866
:1044500060680078FDF75CFD08B1284638BD9DF81E
:104460000000E072EEE70000A0000020F8B51E4D4D
:1044700004464FF0FF37A87A48B395F8240030BBC4
:10448000287D4FF47A7648B164B1282C03D8E0B285
:10449000FFF7F0FC26E00020FFF7ECFC042C05D22F
:1044A000042406E00020FFF7E5FCF9E7B44200D958
:1044B0003446B6FBF4F0401E8DF8000028686B46C9
:1044C0000122417868680078FDF722FD08B138467E
:1044D000F8BD9DF80000401CB6FBF0F0E8814008F4
:1044E000FFF78EFF0020F8BDA0000020F8B50546BC
:1044F00010F0700F4FF0000601D0012004E015B15C
:104500008DF8006002E040208DF80000244C6B46DE
:1045100001222068417D60680078FDF7F9FC4FF0CA
:10452000FF3760BB9DF8000020F0400020738DF83D
:104530000060680602D404208DF80000A80605D4A7
:104540009DF8000040F002008DF80000E80605D458
:104550009DF8000040F001008DF80000280705D408
:104560009DF8000040F038008DF8000020686B4690
:104570000122817D60680078FDF7CAFC10B1A67247
:104580003846F8BD25B1082D02D00020FFF706FF00
:10459000A57226753220FEF755FD0020F8BD0000FB
:1045A000A0000020F8B516000D464FF0FF371FD0D1
:1045B000104CA17AE1B1010A8DF80010C0B28DF85B
:1045C0000100411960684289914211D82168007840
:1045D0006B46C97E0222FDF79BFC48B92068EAB20F
:1045E0003346017E60680078FDF792FC002800D019
:1045F0003846F8BDA000002010B500B9012000F039
:1046000099FC002010BD10B500F02CFD002010BD5D
:1046100003C8002200F016BE10B5012901D0002009
:1046200010BD03220021012000F00CFE040004D084
:1046300000231A46194600F023FF204610BD10B58E
:1046400001F030F8012803D0BDE8104000F0E4BDCF
:1046500010BD3EB504460D46B0F90800FFF7D8F985
:1046600002A9CDE90001208A2B4682B2D4E90010CC
:1046700000F0ECFF012801D000203EBD02983EBDB5
:104680002DE9F041184C0F460546E6682068001DEC
:1046900000F09AFB38B9206890F82C10012088406F
:1046A000216981432161681C07D137B12168BDE8C8
:1046B000F0410E48091D00F0BFBB20683544B542EB
:1046C0004560216805D2A06BBDE8F041091D00F0EE
:1046D0009BBB606B091D00F097FBA06A854200D26E
:1046E000A562BDE8F081000058000020983E00203F
:1046F0002DE9F041054600F0ABFB2E4CA068401CB4
:10470000A06020682C4F10B1606940B32DE0256097
:10471000A068012829D1002606EB860007EB80005F
:1047200000F064FB761C072EF6D323488C3000F093
:104730005DFB2148A03000F059FB1F48B43000F069
:1047400055FB1D48C83000F051FB1B48DC3000F021
:104750004DFB19488C3060631430A06305E020687D
:10476000E96AC06A884200D82560606A401C6062BD
:10477000E96A0120226988401043206101EB810031
:1047800007EB8000291D00F057FB00F081FB6069FA
:1047900000280CD02068E96AC06A884207D207491D
:1047A0004FF080500860BFF34F8FBFF36F8FBDE8AD
:1047B000F081000058000020BC3D002004ED00E026
:1047C00070B5114E114C17E000F080FC3068B8B1A4
:1047D00001F060F800F03CFBF068C568281D00F0AF
:1047E000F3FAA068401EA0606068401E606000F0A0
:1047F0004FFB284600F055F860680028E4D170BDF2
:1048000001F048F8F8E70000843E0020580000203E
:1048100030B4026C0B46002A0BD0C1681144C16051
:104820004468A14201D30168C16030BC1846FBF75F
:1048300056BD30BC70472DE9F041856B17460446E4
:104840000026026C82B1C7B1E068FBF748FDE16861
:10485000206C091AE1602268914202D26168081A4C
:10486000E060022F16D017E02068A8B9606800F059
:104870008BFF0646002060600EE0A068FBF72FFD6E
:10488000216CA0680844A0606168884204D3206855
:10489000A06001E005B16D1E6D1CA5633046BDE84A
:1048A000F08110B50446006B00F006FB2046BDE821
:1048B000104000F001BB000010484FF47051420757
:1048C00006D0C01D0D4920F00700411AC1F57051F6
:1048D0000B4A00230144C2E900030839103A21F0D1
:1048E000070111604B600B600B1AC0E90013936065
:1048F0004FF000405360D06070470000BC010020C2
:1049000044000020074C4FF08056074DFFF758FF3A
:1049100020680128FAD92E60BFF34F8FBFF36F8F45
:10492000F4E70000BC3D002004ED00E02DE9F04775
:104930009A46DDE9098481466FF00303206B03EB9F
:1049400082021044089D20F00706700707D050200F
:1049500080F31188BFF34F8FBFF36F8FFEE72318EB
:104960000A5C83F834200A5C12B1401C1028F6D38C
:10497000002784F84370072D00D30625E562C4E9BB
:104980001157201D00F03DFA04F1180000F039FA2B
:104990002461C5F107006462A061E76484F8507087
:1049A00052464946304600F00FF92060B8F1000F3A
:1049B00001D0C8F80040BDE8F087000030B51149CB
:1049C00000E011460A688242FBD34B685C188442BF
:1049D00003D1406818444860084643681C18944254
:1049E00009D1084C103C2468A24209D052681A44EC
:1049F00042600A6812680260814200D0086030BDDF
:104A00000460F9E74400002010B5044600F020FAE5
:104A1000A06B28B15FF0000400F03AFA204610BD08
:104A20000124F9E70648416B096829B1416BC9685F
:104A3000C9684968816270474FF0FF31FAE70000AA
:104A40005800002008484068401C4FF0500080F398
:104A5000118804D0BFF34F8FBFF36F8FFEE7BFF312
:104A60004F8FBFF36F8FFEE74C0000202DE9F04120
:104A7000044600F0EDF994F9455004F1240609E0EC
:104A8000606A48B1304600F0CBFE08B100F078FA19
:104A90006D1E6DB2002DF3DC4FF0FF3684F84560DB
:104AA00000F0F6F900F0D4F994F9445004F110073D
:104AB00009E0206948B1384600F0B2FE08B100F0C4
:104AC0005FFA6D1E6DB2002DF3DC84F84460BDE822
:104AD000F04100F0DDB900002DE9F0410546002766
:104AE00000F0F4FA314E306808B9FFF7E5FEF068DF
:104AF00005424BD1C5B3083568070ED005F0070055
:104B0000C0F108000544680707D0502080F31188E1
:104B1000BFF34F8FBFF36F8FFEE72DB370688542F1
:104B200034D82248103001460C6801E020460C467B
:104B30006168A94202D221680029F7D131688C420C
:104B400024D007682168016060680837411B10297C
:104B50000FD96019420708D0502080F31188BFF3A5
:104B60004F8FBFF36F8FFEE710E041606560FFF786
:104B700025FF61687068401A7060B268904200D288
:104B8000B060F06801430020C4E9000100F082FE3B
:104B9000780707D0502080F31188BFF34F8FBFF301
:104BA0006F8FFEE73846BDE8F0810000340000203A
:104BB0000449086818B10868826C521C826408684D
:104BC000704700005800002010B5031F4FF080749C
:104BD0001C601B1F21F001011960191F044B0B60A1
:104BE00014390A60091F6FF0020244380A6010BDD0
:104BF000454A0008F8B5144C0146224694F8246052
:104C0000D2E9000200235D1E56B179B1022111E004
:104C1000417C10786B460122FDF77AF968B90EE005
:104C2000A67A56B111B1617C61B902E08DF800300D
:104C3000EEE701218DF80010EAE72846F8BD9DF85F
:104C4000000060740020F8BDA000002000B52DED2C
:104C5000048B83B041EC190BFBF712FE41EC180BEF
:104C600018EE100A18EE901A8DED008B002818BF70
:104C70000120084320F00040C0F17F6000F1E040D7
:104C8000C00F14D019EE101A19EE900A8DED009B8A
:104C9000002918BF0121084320F00040C0F17F60C7
:104CA00000F1E040C00F04BF0120FEF7A1F951EC74
:104CB000180B03B0BDEC048B00BD70B588B01C2A86
:104CC00029D80DEB02030025DD7088258DF80050F2
:104CD0008DF801006C468DF80220002004E00D5C88
:104CE0002618401CF570C0B29042F8D30020D11CA9
:104CF00005E0265CDD78401C3544DD70C0B288429A
:104D0000F7D30025161D04E0605D00F04BF86D1C24
:104D1000EDB2B542F8D308B070BDF0B587B000244D
:104D2000DDE90D650C9FA446EE460EF804C0641C38
:104D3000E4B21C2CF9D3040A8DF800408DF8010070
:104D40000014040A8DF802408DF80300080A8DF85B
:104D500004008DF80510100A8DF806001014010AE1
:104D60008DF808108DF80900180A8DF80A00380A25
:104D70008DF81200300A8DF814008DF81560280A9D
:104D80008DF816008DF807208DF80B308DF8137014
:104D90008DF817501C227146AF20FFF78EFF07B029
:104DA000F0BD000001B5074800680168C943490625
:104DB000FBD44FF0FF33012269460248FCF796FE10
:104DC00008BD000040010020D0E9013201699A606D
:104DD000D0E901235A604A68824201D182684A6060
:104DE000002202610868401E0860704700F1080157
:104DF0004FF0FF32C0E90112C16001610021016082
:104E0000704700210161704730B50B685A1C02D011
:104E100000F1080202E0026904E0224654682568B5
:104E20009D42FAD953684B6099608A60516008616D
:104E30000168491C016030BD42684A6093688B601C
:104E400093685960916008610168491C016070476E
:104E5000502080F31188BFF34F8FBFF36F8F0A4943
:104E60004868401C486001280CD10848006810F0D0
:104E7000FF0F07D0502080F31188BFF34F8FBFF38F
:104E80006F8FFEE7704700004C00002004ED00E04B
:104E90000849486828B1401E486001D180F3118854
:104EA0007047502080F31188BFF34F8FBFF36F8F8F
:104EB000FEE700004C00002070B5002827D0144DFC
:104EC000A0F108046168E868014207D1502080F32E
:104ED0001188BFF34F8FBFF36F8FFEE722683AB19F
:104EE000502080F31188BFF34F8FBFF36F8FFEE721
:104EF0008143616000F0EAF86068696808446860AE
:104F00002046FFF75BFDBDE8704000F0C3BC70BDFC
:104F10003400002006484FF47A710068B0FBF1F1CC
:104F20004FF0E020491E41610721016170470000F8
:104F30003000002010B5020014D00F48006B38B1CB
:104F4000502080F31188BFF34F8FBFF36F8FFEE7C0
:104F500000F0BCF800211046FFF792FB00F09AFC2D
:104F6000002807D105494FF080500860BFF34F8FEC
:104F7000BFF36F8F10BD00005800002004ED00E06B
:104F800001490120C86170475800002010B50C4647
:104F900050B1094909681831FFF736FF2046BDE8CE
:104FA00010400121FFF76CBB502080F31188BFF344
:104FB0004F8FBFF36F8FFEE75800002070B50400DD
:104FC00039D01D4DE06A2968C96A884233D2A06988
:104FD000002804DB2868C06AC0F10700A061E16A0C
:104FE000164E01EB8101606906EB810188421FD1F9
:104FF000201DFFF7E9FE012150B9E06A00EB8002B5
:1050000056F8222022B92A6901FA00F082432A6167
:105010002868C06AE0622A6981401143296100EB77
:10502000800006EB8000211DBDE87040FFF704BF43
:105030002868C06AE06270BD58000020BC3D0020B6
:1050400028B107490A6A0260C96841607047502068
:1050500080F31188BFF34F8FBFF36F8FFEE700001F
:10506000580000201CB515480024CDE90040234617
:10507000802213A1144800F0E9FA012809D0401C4D
:105080001AD1502080F31188BFF34F8FBFF36F8F79
:10509000FEE7502080F31188BFF34F8FBFF36F8F6F
:1050A00006484FF0FF312C38816201214161C46014
:1050B000BDE81C4000F040B81CBD0000840000208A
:1050C00049444C4500000000054900080248016BB6
:1050D000491C016370470000580000201448016B10
:1050E00011B10121C16170470021C1610169B1FAAB
:1050F00081F1C1F11F0101EB81020E4951F822300B
:105100006BB101EB820101F108034A6852684A6001
:105110009A4201D152684A60D168016070475020BC
:1051200080F31188BFF34F8FBFF36F8FFEE700004E
:1051300058000020BC3D00201CB532480168324AAE
:10514000914207D1502080F31188BFF34F8FBFF3F6
:105150006F8FFEE700682C49491E884207D1502016
:1051600080F31188BFF34F8FBFF36F8FFEE727499E
:1051700008780190FF20087008788DF800009DF8ED
:1051800000009DF8002000F0F000904207D0502071
:1051900080F31188BFF34F8FBFF36F8FFEE79DF849
:1051A00000001B4A00F0500010700720906005E0DE
:1051B0009DF800305B008DF80030401E9DF80030F7
:1051C0001B06F5D4000200F4E060906001980870BE
:1051D0000C482030016841F470010160016841F021
:1051E00070410160FFF796FE00205060FAF7F6FF6D
:1051F0000848016841F040410160FAF7DFFF0020F4
:105200001CBD000000ED00E071C20F4100E400E0B1
:105210004C00002034EF00E010B5502080F31188DE
:10522000BFF34F8FBFF36F8F00F04AFA18B10449F4
:105230004FF080500860002080F3118810BD0000FE
:1052400004ED00E070B50E46050013D0D6B105FBA5
:1052500006F04830FFF740FC040009D004F1480193
:1052600020468EB10160C0E90F56012100F0C4F85C
:10527000204670BD502080F31188BFF34F8FBFF3DD
:105280006F8FFEE70020E4E70060ECE72DE9FF4FB9
:10529000002683B09B468A46040003D0BAF1000F73
:1052A00008D011E0502080F31188BFF34F8FBFF377
:1052B0006F8FFEE7206C38B1502080F31188BFF368
:1052C0004F8FBFF36F8FFEE700F0ECF9DFF824811A
:1052D0004FF000094FF0805748B9059838B1502079
:1052E00080F31188BFF34F8FBFF36F8FFEE7FFF797
:1052F000AFFDA56B45B351462046E668FFF788FA37
:10530000BBF1000F13D0E660606A50B104F12400D5
:1053100000F086FA28B1C8F80070BFF34F8FBFF3D2
:105320006F8FFFF7B5FD012007B0BDE8F08F6D1E50
:10533000A563206810B9FFF73BFC60602069002876
:10534000EFD004F11000E3E7059808B11EB106E0C4
:10535000FFF79EFD27E06846FFF772FE0126FFF784
:1053600097FDFFF7B3FEFFF773FD94F94400401C6F
:1053700001D184F8449094F94500401C01D184F88F
:105380004590FFF785FD05A9684600F029F900283A
:1053900020460AD0FFF76AFB00F07CFA2046FFF7B0
:1053A00033FB0028A3D00020BEE7FFF72DFBD8B1C8
:1053B000206830B9FFF74CFD6068FFF7FFFDFFF78D
:1053C00067FD04F124000599FFF7E0FD2046FFF793
:1053D0004DFB00F05FFA002889D1C8F80070BFF3D8
:1053E0004F8FBFF36F8F82E72046FFF73FFB00F040
:1053F00051FA7CE704ED00E070B50D46040025D0BD
:10540000FFF726FDD4E90F20216802FB001161603F
:105410000021A1632168A1600A46D4E90F01401E62
:1054200000FB0121E16021464FF0FF3001F8440FFD
:10543000487004F110008DB1FFF7D8FC04F124008E
:10544000FFF7D4FCFFF724FD012070BD502080F34E
:105450001188BFF34F8FBFF36F8FFEE721690029DB
:10546000F0D000F0DDF90028ECD004494FF0805076
:105470000860BFF34F8FBFF36F8FE3E704ED00E0E9
:105480002DE9FF4782B01D468A464FF00008040010
:1054900003D0BAF1000F08D011E0502080F311883A
:1054A000BFF34F8FBFF36F8FFEE7206C38B15020F2
:1054B00080F31188BFF34F8FBFF36F8FFEE7022D8C
:1054C0000AD1E06B012807D0502080F31188BFF388
:1054D0004F8FBFF36F8FFEE700F0E4F83F4F4FF0C0
:1054E00000094FF0805648B9049838B1502080F335
:1054F0001188BFF34F8FBFF36F8FFEE7FFF7A8FC54
:10550000A06BE16B884207D3022D05D00498D0B17F
:10551000B8F1000F1AD01EE02A4651462046FFF788
:105520008AF9616A19B104F1240000F079F920B117
:105530003E60BFF34F8FBFF36F8FFFF7A9FC0120D1
:1055400006B0BDE8F087FFF7A3FC22E06846FFF74E
:1055500077FD4FF00108FFF79BFCFFF7B7FDFFF762
:1055600077FC94F94400401C01D184F8449094F9EC
:105570004500401C01D184F84590FFF789FC04A93F
:10558000684600F02DF830B12046FFF76FFA00F0C2
:1055900081F90020D4E7FFF75BFCA06BE16B884248
:1055A00013D1FFF775FC04F110000499FFF7EEFC2E
:1055B0002046FFF75BFA00F06DF900289ED13E60AF
:1055C000BFF34F8FBFF36F8F98E7FFF761FC204663
:1055D000FFF74CFA00F05EF990E7000004ED00E000
:1055E00070B50D46040019D005B3FFF731FC164A1B
:1055F000D1682868431C0FD02368126A934202D0F6
:1056000062688A421AD96268891A814216D2401A9F
:1056100028602046FFF714FD002410E0502080F39E
:105620001188BFF34F8FBFF36F8FFEE7502080F3D9
:105630001188BFF34F8FBFF36F8FFEE70124FFF791
:1056400027FC204670BD0000580000202DE9FF5FB8
:105650008346DDE90E87994616468A469000FFF795
:105660003BFA05001AD05420FFF736FA040012D096
:1056700025630021CDE90241CDE900874B46324642
:1056800051465846FFF752F92046FFF731F80120FE
:1056900004B0BDE8F09F2846FFF70EFC4FF0FF3046
:1056A000F6E700000548416919B1006B18B1002008
:1056B000704701207047022070470000580000200A
:1056C0002DE9F0412E4C0027206B40B1A069401C11
:1056D000A061E06900B101273846BDE8F081E668C5
:1056E000761CE66013D1606B006838B1502080F3FF
:1056F0001188BFF34F8FBFF36F8FFEE7606BA16B15
:105700006163A063206A401C2062FFF78BF9A06AE6
:10571000DFF87080864209D3606B006880B1606BEF
:10572000C068C568686886420DD2A0622068C06AF9
:1057300000EB800158F821000128CAD90127C8E7E9
:105740004FF0FF30F1E7281DFFF73EFBA86A18B1C4
:1057500005F11800FFF738FBE86A01212269814052
:105760001143216100EB800108EB8100291DFFF747
:1057700063FBE86A2168C96A8842CDD30127CBE779
:1057800058000020BC3D002070B504004FF000011F
:1057900040D0214D2868844207D0502080F31188E2
:1057A000BFF34F8FBFF36F8FFEE7A06C38B1401E81
:1057B000A064636CE26A9A422CD040B12AE0502087
:1057C00080F31188BFF34F8FBFF36F8FFEE7201D6B
:1057D000FFF7FAFA114A012150B9E06A00EB8003A1
:1057E00052F8233023B92B6901FA00F083432B616F
:1057F000606CE062C0F10700A061E06A2B69814043
:105800001943296100EB800002EB8000211DFFF7A6
:1058100013FB0121084670BD58000020BC3D00204C
:105820002DE9F041C068C468ACB104F11800074626
:10583000FFF7CAFA154D286B0126A0B13946144866
:10584000FFF7FAFAE06A2968C96A88421CD9012080
:10585000EE61BDE8F081502080F31188BFF34F8FD7
:10586000BFF36F8FFEE7201DFFF7AEFAE16A2A69EA
:1058700006FA01F01043286101EB81000449B439B4
:1058800001EB8000211DDBE70020E2E7580000204B
:10589000703E00202DE9F0472C4D00242746286B50
:1058A00038B1FFF7D5FA286B401E2863286B40B14A
:1058B00046E0502080F31188BFF34F8FBFF36F8F06
:1058C000FEE7A968224E0120D1B3A6F1B4098046B3
:1058D0003068E8B1F068C46804F11800FFF774FAA2
:1058E000201DFFF771FAE06A2A6908FA00F11143F6
:1058F000296100EB800109EB8100211DFFF79CFA73
:10590000E06A2968C96A8842E2D3C5F81C80DFE7EB
:105910000CB1FFF787F8AC6944B14646FFF7D0FEFB
:1059200000B1EE61641EF9D10020A861E86938B1C8
:105930000849012738070860BFF34F8FBFF36F8F07
:10594000FFF7A6FA3846BDE8F087000058000020AF
:10595000703E002004ED00E0100000002400000074
:1059600010000000240000001000000002000000F1
:105970002067000845090008FFFF00000000000044
:105980008000000044670008C5090008FEFF000011
:105990000000000080000000386700083B09000894
:1059A000FFFF000000000000800000002C670008DE
:1059B0003309000800000000000000008000000023
:1059C00000000000000000000102030406070809AF
:1059D000000000000102030475191A0C6A231B1C45
:1059E0001D1E1F207274433B4138393A696B6C3776
:1059F0006F77246D6E706800000480004101000024
:105A000000010000830000000008000000010018F1
:105A100032000500000020410000D242295C0F3E08
:105A20009A99993E3333733F295C0F3E0000000082
:105A300000000000000070000000002400000002D0
:105A40000003000000650054FFEF0000FA80000B27
:105A500012820001030C30C30E8C8CE914D5400275
:105A600013710F8E3883F8833000F883258EF88306
:105A70003000F883FFFFFFFF0FFEA9D624000400CB
:105A80001A8279A10000003CFFFF00000010000016
:105A900038836FA2003E03304000000002CAE309D1
:105AA0003E800000200000000000000040000000D8
:105AB00060000000000C0000000C186E0000069250
:105AC0000A16C0DFFFFF0256FD8CD377FFE1C496B4
:105AD000E0C5BEAA00000000FFFF0B2B0000165718
